{
  "address": "0xA46D28633B36FB9dF949B82d29BF1B72994Fe34C",
  "abi": [
    {
      "inputs": [
        {
          "internalType": "address",
          "name": "initialOwner",
          "type": "address"
        },
        {
          "internalType": "address",
          "name": "initialBeneficiary",
          "type": "address"
        },
        {
          "internalType": "address",
          "name": "mfAddress",
          "type": "address"
        },
        {
          "internalType": "address",
          "name": "msAddress",
          "type": "address"
        }
      ],
      "stateMutability": "nonpayable",
      "type": "constructor"
    },
    {
      "anonymous": false,
      "inputs": [
        {
          "indexed": true,
          "internalType": "address",
          "name": "owner",
          "type": "address"
        },
        {
          "indexed": true,
          "internalType": "address",
          "name": "approved",
          "type": "address"
        },
        {
          "indexed": true,
          "internalType": "uint256",
          "name": "tokenId",
          "type": "uint256"
        }
      ],
      "name": "Approval",
      "type": "event"
    },
    {
      "anonymous": false,
      "inputs": [
        {
          "indexed": true,
          "internalType": "address",
          "name": "owner",
          "type": "address"
        },
        {
          "indexed": true,
          "internalType": "address",
          "name": "operator",
          "type": "address"
        },
        {
          "indexed": false,
          "internalType": "bool",
          "name": "approved",
          "type": "bool"
        }
      ],
      "name": "ApprovalForAll",
      "type": "event"
    },
    {
      "anonymous": false,
      "inputs": [
        {
          "indexed": true,
          "internalType": "address",
          "name": "previousOwner",
          "type": "address"
        },
        {
          "indexed": true,
          "internalType": "address",
          "name": "newOwner",
          "type": "address"
        }
      ],
      "name": "OwnershipTransferred",
      "type": "event"
    },
    {
      "anonymous": false,
      "inputs": [
        {
          "indexed": true,
          "internalType": "address",
          "name": "from",
          "type": "address"
        },
        {
          "indexed": true,
          "internalType": "address",
          "name": "to",
          "type": "address"
        },
        {
          "indexed": true,
          "internalType": "uint256",
          "name": "tokenId",
          "type": "uint256"
        }
      ],
      "name": "Transfer",
      "type": "event"
    },
    {
      "inputs": [
        {
          "internalType": "address",
          "name": "to",
          "type": "address"
        },
        {
          "internalType": "uint256",
          "name": "tokenId",
          "type": "uint256"
        }
      ],
      "name": "approve",
      "outputs": [],
      "stateMutability": "nonpayable",
      "type": "function"
    },
    {
      "inputs": [
        {
          "internalType": "address",
          "name": "owner",
          "type": "address"
        }
      ],
      "name": "balanceOf",
      "outputs": [
        {
          "internalType": "uint256",
          "name": "",
          "type": "uint256"
        }
      ],
      "stateMutability": "view",
      "type": "function"
    },
    {
      "inputs": [],
      "name": "beneficiary",
      "outputs": [
        {
          "internalType": "address payable",
          "name": "",
          "type": "address"
        }
      ],
      "stateMutability": "view",
      "type": "function"
    },
    {
      "inputs": [],
      "name": "beneficiaryLocked",
      "outputs": [
        {
          "internalType": "bool",
          "name": "",
          "type": "bool"
        }
      ],
      "stateMutability": "view",
      "type": "function"
    },
    {
      "inputs": [
        {
          "internalType": "uint256",
          "name": "id",
          "type": "uint256"
        }
      ],
      "name": "generateSVGofTokenById",
      "outputs": [
        {
          "internalType": "string",
          "name": "",
          "type": "string"
        }
      ],
      "stateMutability": "view",
      "type": "function"
    },
    {
      "inputs": [
        {
          "internalType": "uint256",
          "name": "tokenId",
          "type": "uint256"
        }
      ],
      "name": "getApproved",
      "outputs": [
        {
          "internalType": "address",
          "name": "",
          "type": "address"
        }
      ],
      "stateMutability": "view",
      "type": "function"
    },
    {
      "inputs": [
        {
          "internalType": "address",
          "name": "owner",
          "type": "address"
        },
        {
          "internalType": "address",
          "name": "operator",
          "type": "address"
        }
      ],
      "name": "isApprovedForAll",
      "outputs": [
        {
          "internalType": "bool",
          "name": "",
          "type": "bool"
        }
      ],
      "stateMutability": "view",
      "type": "function"
    },
    {
      "inputs": [],
      "name": "lockBeneficiary",
      "outputs": [],
      "stateMutability": "nonpayable",
      "type": "function"
    },
    {
      "inputs": [
        {
          "internalType": "uint256",
          "name": "batchSize",
          "type": "uint256"
        }
      ],
      "name": "mintBatch",
      "outputs": [],
      "stateMutability": "payable",
      "type": "function"
    },
    {
      "inputs": [],
      "name": "mintCost",
      "outputs": [
        {
          "internalType": "uint256",
          "name": "",
          "type": "uint256"
        }
      ],
      "stateMutability": "view",
      "type": "function"
    },
    {
      "inputs": [],
      "name": "mintLimit",
      "outputs": [
        {
          "internalType": "uint256",
          "name": "",
          "type": "uint256"
        }
      ],
      "stateMutability": "view",
      "type": "function"
    },
    {
      "inputs": [],
      "name": "mintMaxBatchSize",
      "outputs": [
        {
          "internalType": "uint256",
          "name": "",
          "type": "uint256"
        }
      ],
      "stateMutability": "view",
      "type": "function"
    },
    {
      "inputs": [],
      "name": "mintsCompleted",
      "outputs": [
        {
          "internalType": "uint256",
          "name": "",
          "type": "uint256"
        }
      ],
      "stateMutability": "view",
      "type": "function"
    },
    {
      "inputs": [],
      "name": "mintsRemaining",
      "outputs": [
        {
          "internalType": "uint256",
          "name": "",
          "type": "uint256"
        }
      ],
      "stateMutability": "view",
      "type": "function"
    },
    {
      "inputs": [],
      "name": "name",
      "outputs": [
        {
          "internalType": "string",
          "name": "",
          "type": "string"
        }
      ],
      "stateMutability": "view",
      "type": "function"
    },
    {
      "inputs": [],
      "name": "owner",
      "outputs": [
        {
          "internalType": "address",
          "name": "",
          "type": "address"
        }
      ],
      "stateMutability": "view",
      "type": "function"
    },
    {
      "inputs": [
        {
          "internalType": "uint256",
          "name": "tokenId",
          "type": "uint256"
        }
      ],
      "name": "ownerOf",
      "outputs": [
        {
          "internalType": "address",
          "name": "",
          "type": "address"
        }
      ],
      "stateMutability": "view",
      "type": "function"
    },
    {
      "inputs": [],
      "name": "renounceOwnership",
      "outputs": [],
      "stateMutability": "nonpayable",
      "type": "function"
    },
    {
      "inputs": [],
      "name": "royaltyBasisPoints",
      "outputs": [
        {
          "internalType": "uint256",
          "name": "",
          "type": "uint256"
        }
      ],
      "stateMutability": "view",
      "type": "function"
    },
    {
      "inputs": [
        {
          "internalType": "uint256",
          "name": "_tokenId",
          "type": "uint256"
        },
        {
          "internalType": "uint256",
          "name": "_salePrice",
          "type": "uint256"
        }
      ],
      "name": "royaltyInfo",
      "outputs": [
        {
          "internalType": "address",
          "name": "receiver",
          "type": "address"
        },
        {
          "internalType": "uint256",
          "name": "royaltyAmount",
          "type": "uint256"
        }
      ],
      "stateMutability": "view",
      "type": "function"
    },
    {
      "inputs": [
        {
          "internalType": "address",
          "name": "from",
          "type": "address"
        },
        {
          "internalType": "address",
          "name": "to",
          "type": "address"
        },
        {
          "internalType": "uint256",
          "name": "tokenId",
          "type": "uint256"
        }
      ],
      "name": "safeTransferFrom",
      "outputs": [],
      "stateMutability": "nonpayable",
      "type": "function"
    },
    {
      "inputs": [
        {
          "internalType": "address",
          "name": "from",
          "type": "address"
        },
        {
          "internalType": "address",
          "name": "to",
          "type": "address"
        },
        {
          "internalType": "uint256",
          "name": "tokenId",
          "type": "uint256"
        },
        {
          "internalType": "bytes",
          "name": "data",
          "type": "bytes"
        }
      ],
      "name": "safeTransferFrom",
      "outputs": [],
      "stateMutability": "nonpayable",
      "type": "function"
    },
    {
      "inputs": [
        {
          "internalType": "address",
          "name": "operator",
          "type": "address"
        },
        {
          "internalType": "bool",
          "name": "approved",
          "type": "bool"
        }
      ],
      "name": "setApprovalForAll",
      "outputs": [],
      "stateMutability": "nonpayable",
      "type": "function"
    },
    {
      "inputs": [
        {
          "internalType": "bytes4",
          "name": "interfaceId",
          "type": "bytes4"
        }
      ],
      "name": "supportsInterface",
      "outputs": [
        {
          "internalType": "bool",
          "name": "",
          "type": "bool"
        }
      ],
      "stateMutability": "view",
      "type": "function"
    },
    {
      "inputs": [],
      "name": "symbol",
      "outputs": [
        {
          "internalType": "string",
          "name": "",
          "type": "string"
        }
      ],
      "stateMutability": "view",
      "type": "function"
    },
    {
      "inputs": [
        {
          "internalType": "uint256",
          "name": "id",
          "type": "uint256"
        }
      ],
      "name": "tokenURI",
      "outputs": [
        {
          "internalType": "string",
          "name": "",
          "type": "string"
        }
      ],
      "stateMutability": "view",
      "type": "function"
    },
    {
      "inputs": [
        {
          "internalType": "address",
          "name": "from",
          "type": "address"
        },
        {
          "internalType": "address",
          "name": "to",
          "type": "address"
        },
        {
          "internalType": "uint256",
          "name": "tokenId",
          "type": "uint256"
        }
      ],
      "name": "transferFrom",
      "outputs": [],
      "stateMutability": "nonpayable",
      "type": "function"
    },
    {
      "inputs": [
        {
          "internalType": "address",
          "name": "newOwner",
          "type": "address"
        }
      ],
      "name": "transferOwnership",
      "outputs": [],
      "stateMutability": "nonpayable",
      "type": "function"
    },
    {
      "inputs": [
        {
          "internalType": "address",
          "name": "newBeneficiary",
          "type": "address"
        }
      ],
      "name": "updateBeneficiary",
      "outputs": [],
      "stateMutability": "nonpayable",
      "type": "function"
    },
    {
      "inputs": [
        {
          "internalType": "string",
          "name": "newExternalUrl",
          "type": "string"
        }
      ],
      "name": "updateExternalUrl",
      "outputs": [],
      "stateMutability": "nonpayable",
      "type": "function"
    },
    {
      "inputs": [
        {
          "internalType": "uint256",
          "name": "newRoyaltyBasisPoints",
          "type": "uint256"
        }
      ],
      "name": "updateRoyaltyBasisPoints",
      "outputs": [],
      "stateMutability": "nonpayable",
      "type": "function"
    },
    {
      "inputs": [],
      "name": "withdraw",
      "outputs": [],
      "stateMutability": "nonpayable",
      "type": "function"
    },
    {
      "inputs": [
        {
          "internalType": "address",
          "name": "_tokenContract",
          "type": "address"
        },
        {
          "internalType": "uint256",
          "name": "_amount",
          "type": "uint256"
        }
      ],
      "name": "withdrawERC20",
      "outputs": [],
      "stateMutability": "nonpayable",
      "type": "function"
    }
  ],
  "transactionHash": "0xbcad0bb014220e72c41e352691d508de679eddde6ad225813fe163288d22f722",
  "args": [
    "0x7349d6e55cB3F737249FbAa047C16b826559B127",
    "0x7349d6e55cB3F737249FbAa047C16b826559B127",
    "0xF2D2859BC10ce6c7c338c949a0e9eaa730C2d1c3",
    "0xA0F5053C75f344F1C0E3C5d88Ce343bB7716793a"
  ],
  "numDeployments": 2,
  "solcInputHash": "1904c013d217fa9e21462de06df4ebd0",
  "bytecode": "0x60c0604052601e60809081527f68747470733a2f2f5745425f4150505f50454e44494e472f746f6b656e2f000060a0526007906200003e908262002acc565b5060016008908155600b805460ff60a01b191690556101f4600c556040805161010081018252605a8082526020820152603c91810191909152602d606082015260486080820152601e60a0820152602460c082015260b460e0820152620000a991600f9190620025c8565b506040805161010081018252600080825260208201526105449181019190915261066560608201526107d060808201526109b560a0820152610c9660c08201526112c760e08201526200010190601090600862002664565b5060408051610140810182526003610100820181815262292ca160e91b6101208401528252825180840184528181526243594d60e81b60208281019190915280840191909152835180850185528281526223aca160e91b81830152838501528351808501855282815262524f5960e81b818301526060840152835180850185529182526243424d60e81b8282015260808301919091528251808401845260078152665261696e626f7760c81b8183015260a083015282518084018452600a808252694d6f6e6f6368726f6d6560b01b82840181905260c0850192909252845180860190955284529083015260e0810191909152620002049060189060086200269b565b5060408051610100810182526000815260cf6020808301919091526101c0928201929092526102e1606082015261044c608082015261063160a082015261077360c0820181905260e08201526200025e9190600862002664565b50604051806101000160405280604051806102000160405280604051806040016040528060038152602001621c995960ea1b8152508152602001604051806040016040528060038152602001621c995960ea1b8152508152602001604051806040016040528060038152602001621c995960ea1b8152508152602001604051806040016040528060038152602001621c995960ea1b8152508152602001604051806040016040528060038152602001621c995960ea1b81525081526020016040518060400160405280600681526020016579656c6c6f7760d01b81525081526020016040518060400160405280600681526020016579656c6c6f7760d01b81525081526020016040518060400160405280600681526020016579656c6c6f7760d01b81525081526020016040518060400160405280600681526020016579656c6c6f7760d01b81525081526020016040518060400160405280600681526020016579656c6c6f7760d01b815250815260200160405180604001604052806004815260200163626c756560e01b815250815260200160405180604001604052806004815260200163626c756560e01b815250815260200160405180604001604052806004815260200163626c756560e01b815250815260200160405180604001604052806004815260200163626c756560e01b815250815260200160405180604001604052806004815260200163626c756560e01b815250815260200160405180604001604052806005815260200164776869746560d81b81525081525081526020016040518061020001604052806040518060400160405280600681526020016579656c6c6f7760d01b81525081526020016040518060400160405280600681526020016579656c6c6f7760d01b81525081526020016040518060400160405280600681526020016579656c6c6f7760d01b81525081526020016040518060400160405280600681526020016579656c6c6f7760d01b81525081526020016040518060400160405280600681526020016579656c6c6f7760d01b81525081526020016040518060400160405280600481526020016331bcb0b760e11b81525081526020016040518060400160405280600481526020016331bcb0b760e11b81525081526020016040518060400160405280600481526020016331bcb0b760e11b81525081526020016040518060400160405280600481526020016331bcb0b760e11b81525081526020016040518060400160405280600481526020016331bcb0b760e11b8152508152602001604051806040016040528060078152602001666d6167656e746160c81b8152508152602001604051806040016040528060078152602001666d6167656e746160c81b8152508152602001604051806040016040528060078152602001666d6167656e746160c81b8152508152602001604051806040016040528060078152602001666d6167656e746160c81b8152508152602001604051806040016040528060078152602001666d6167656e746160c81b815250815260200160405180604001604052806005815260200164776869746560d81b81525081525081526020016040518061020001604052806040518060400160405280600581526020016433b932b2b760d91b81525081526020016040518060400160405280600581526020016433b932b2b760d91b81525081526020016040518060400160405280600581526020016433b932b2b760d91b81525081526020016040518060400160405280600581526020016433b932b2b760d91b81525081526020016040518060400160405280600581526020016433b932b2b760d91b81525081526020016040518060400160405280600681526020016579656c6c6f7760d01b81525081526020016040518060400160405280600681526020016579656c6c6f7760d01b81525081526020016040518060400160405280600681526020016579656c6c6f7760d01b81525081526020016040518060400160405280600681526020016579656c6c6f7760d01b81525081526020016040518060400160405280600681526020016579656c6c6f7760d01b815250815260200160405180604001604052806004815260200163626c756560e01b815250815260200160405180604001604052806004815260200163626c756560e01b815250815260200160405180604001604052806004815260200163626c756560e01b815250815260200160405180604001604052806004815260200163626c756560e01b815250815260200160405180604001604052806004815260200163626c756560e01b815250815260200160405180604001604052806005815260200164776869746560d81b8152508152508152602001604051806102000160405280604051806040016040528060038152602001621c995960ea1b8152508152602001604051806040016040528060038152602001621c995960ea1b8152508152602001604051806040016040528060038152602001621c995960ea1b8152508152602001604051806040016040528060038152602001621c995960ea1b8152508152602001604051806040016040528060038152602001621c995960ea1b8152508152602001604051806040016040528060068152602001656f72616e676560d01b8152508152602001604051806040016040528060068152602001656f72616e676560d01b8152508152602001604051806040016040528060068152602001656f72616e676560d01b8152508152602001604051806040016040528060068152602001656f72616e676560d01b8152508152602001604051806040016040528060068152602001656f72616e676560d01b81525081526020016040518060400160405280600681526020016579656c6c6f7760d01b81525081526020016040518060400160405280600681526020016579656c6c6f7760d01b81525081526020016040518060400160405280600681526020016579656c6c6f7760d01b81525081526020016040518060400160405280600681526020016579656c6c6f7760d01b81525081526020016040518060400160405280600681526020016579656c6c6f7760d01b815250815260200160405180604001604052806005815260200164776869746560d81b81525081525081526020016040518061020001604052806040518060400160405280600481526020016331bcb0b760e11b81525081526020016040518060400160405280600481526020016331bcb0b760e11b81525081526020016040518060400160405280600481526020016331bcb0b760e11b81525081526020016040518060400160405280600481526020016331bcb0b760e11b81525081526020016040518060400160405280600481526020016331bcb0b760e11b815250815260200160405180604001604052806004815260200163626c756560e01b815250815260200160405180604001604052806004815260200163626c756560e01b815250815260200160405180604001604052806004815260200163626c756560e01b815250815260200160405180604001604052806004815260200163626c756560e01b815250815260200160405180604001604052806004815260200163626c756560e01b8152508152602001604051806040016040528060078152602001666d6167656e746160c81b8152508152602001604051806040016040528060078152602001666d6167656e746160c81b8152508152602001604051806040016040528060078152602001666d6167656e746160c81b8152508152602001604051806040016040528060078152602001666d6167656e746160c81b8152508152602001604051806040016040528060078152602001666d6167656e746160c81b815250815260200160405180604001604052806005815260200164776869746560d81b8152508152508152602001604051806102000160405280604051806040016040528060038152602001621c995960ea1b8152508152602001604051806040016040528060038152602001621c995960ea1b8152508152602001604051806040016040528060068152602001656f72616e676560d01b8152508152602001604051806040016040528060068152602001656f72616e676560d01b81525081526020016040518060400160405280600681526020016579656c6c6f7760d01b81525081526020016040518060400160405280600681526020016579656c6c6f7760d01b81525081526020016040518060400160405280600581526020016433b932b2b760d91b81525081526020016040518060400160405280600581526020016433b932b2b760d91b81525081526020016040518060400160405280600481526020016331bcb0b760e11b81525081526020016040518060400160405280600481526020016331bcb0b760e11b815250815260200160405180604001604052806004815260200163626c756560e01b815250815260200160405180604001604052806004815260200163626c756560e01b8152508152602001604051806040016040528060078152602001666d6167656e746160c81b8152508152602001604051806040016040528060078152602001666d6167656e746160c81b815250815260200160405180604001604052806005815260200164776869746560d81b815250815260200160405180604001604052806005815260200164776869746560d81b81525081525081526020016040518061020001604052806040518060400160405280600d81526020016c7267622833322c33322c33322960981b81525081526020016040518060400160405280600d81526020016c7267622833322c33322c33322960981b81525081526020016040518060400160405280600d81526020016c7267622833322c33322c33322960981b81525081526020016040518060400160405280600d81526020016c7267622833322c33322c33322960981b81525081526020016040518060400160405280600d81526020016c7267622833322c33322c33322960981b8152508152602001604051806040016040528060048152602001636772657960e01b8152508152602001604051806040016040528060048152602001636772657960e01b8152508152602001604051806040016040528060048152602001636772657960e01b8152508152602001604051806040016040528060048152602001636772657960e01b8152508152602001604051806040016040528060048152602001636772657960e01b8152508152602001604051806040016040528060108152602001600080516020620072d98339815191528152508152602001604051806040016040528060108152602001600080516020620072d98339815191528152508152602001604051806040016040528060108152602001600080516020620072d98339815191528152508152602001604051806040016040528060108152602001600080516020620072d98339815191528152508152602001604051806040016040528060108152602001600080516020620072d9833981519152815250815260200160405180604001604052806005815260200164776869746560d81b81525081525081526020016040518061020001604052806040518060400160405280600d81526020016c7267622833322c33322c33322960981b81525081526020016040518060400160405280600d81526020016c7267622833322c33322c33322960981b81525081526020016040518060400160405280600d81526020016c7267622833322c33322c33322960981b81525081526020016040518060400160405280600d81526020016c7267622833322c33322c33322960981b81525081526020016040518060400160405280600d81526020016c7267622833322c33322c33322960981b8152508152602001604051806040016040528060048152602001636772657960e01b8152508152602001604051806040016040528060048152602001636772657960e01b8152508152602001604051806040016040528060048152602001636772657960e01b8152508152602001604051806040016040528060048152602001636772657960e01b8152508152602001604051806040016040528060048152602001636772657960e01b8152508152602001604051806040016040528060108152602001600080516020620072d98339815191528152508152602001604051806040016040528060108152602001600080516020620072d98339815191528152508152602001604051806040016040528060108152602001600080516020620072d98339815191528152508152602001604051806040016040528060108152602001600080516020620072d98339815191528152508152602001604051806040016040528060108152602001600080516020620072d9833981519152815250815260200160405180604001604052806005815260200164776869746560d81b8152508152508152506028906008620014ff929190620026e7565b50604080516102408101825260066102008201908152654f706171756560d01b610220830152815281518083018352600981526820b63610189a97989b60b91b6020828101919091528083019190915282518084018452600780825266082d8d8406e5e760cb1b82840152838501919091528351808501855281815266105b1b080ccbcd60ca1b8184015260608401528351808501855281815266416c6c20322f3360c81b818401526080840152835180850185528181526620b6361018979960c91b8184015260a08401528351808501855281815266416c6c20312f3360c81b8184015260c08401528351808501855281815266105b1b080c4bcd60ca1b8184015260e08401528351808501855290815266416c6c20312f3560c81b818301526101008301528251808401845260088152670416c6c20332f32360c41b8183015261012083015282518084018452600d81526c27b830b8bab29037b91018979960991b818301526101408301528251808401845260108082526f4f70617175652c20322f332c20312f3360801b8284015261016084019190915283518085018552601581527f4f70617175652c20332f342c20312f322c20312f3400000000000000000000008184015261018084015283518085018552600a80825269322f33206f7220312f3360b01b828501526101a0850191909152845180860186526012815271342f352c20332f352c20322f352c20312f3560701b818501526101c08501528451808601909552845269313025206f722039302560b01b918401919091526101e0820192909252620017599160a8919062002735565b506040518061020001604052806040518060800160405280604051806040016040528060018152602001603160f81b8152508152602001604051806040016040528060018152602001603160f81b8152508152602001604051806040016040528060018152602001603160f81b8152508152602001604051806040016040528060018152602001603160f81b8152508152508152602001604051806080016040528060405180604001604052806006815260200165302e3933373560d01b815250815260200160405180604001604052806006815260200165302e3933373560d01b815250815260200160405180604001604052806006815260200165302e3933373560d01b815250815260200160405180604001604052806006815260200165302e3933373560d01b8152508152508152602001604051806080016040528060405180604001604052806005815260200164302e38373560d81b815250815260200160405180604001604052806005815260200164302e38373560d81b815250815260200160405180604001604052806005815260200164302e38373560d81b815250815260200160405180604001604052806005815260200164302e38373560d81b8152508152508152602001604051806080016040528060405180604001604052806004815260200163302e373560e01b815250815260200160405180604001604052806004815260200163302e373560e01b815250815260200160405180604001604052806004815260200163302e373560e01b815250815260200160405180604001604052806004815260200163302e373560e01b8152508152508152602001604051806080016040528060405180604001604052806005815260200164302e36363760d81b815250815260200160405180604001604052806005815260200164302e36363760d81b815250815260200160405180604001604052806005815260200164302e36363760d81b815250815260200160405180604001604052806005815260200164302e36363760d81b8152508152508152602001604051806080016040528060405180604001604052806003815260200162302e3560e81b815250815260200160405180604001604052806003815260200162302e3560e81b815250815260200160405180604001604052806003815260200162302e3560e81b815250815260200160405180604001604052806003815260200162302e3560e81b8152508152508152602001604051806080016040528060405180604001604052806005815260200164302e33333360d81b815250815260200160405180604001604052806005815260200164302e33333360d81b815250815260200160405180604001604052806005815260200164302e33333360d81b815250815260200160405180604001604052806005815260200164302e33333360d81b8152508152508152602001604051806080016040528060405180604001604052806004815260200163302e323560e01b815250815260200160405180604001604052806004815260200163302e323560e01b815250815260200160405180604001604052806004815260200163302e323560e01b815250815260200160405180604001604052806004815260200163302e323560e01b815250815250815260200160405180608001604052806040518060400160405280600381526020016218171960e91b81525081526020016040518060400160405280600381526020016218171960e91b81525081526020016040518060400160405280600381526020016218171960e91b81525081526020016040518060400160405280600381526020016218171960e91b8152508152508152602001604051806080016040528060405180604001604052806004815260200163302e313560e01b815250815260200160405180604001604052806004815260200163302e313560e01b815250815260200160405180604001604052806004815260200163302e313560e01b815250815260200160405180604001604052806004815260200163302e313560e01b81525081525081526020016040518060800160405280604051806040016040528060018152602001603160f81b8152508152602001604051806040016040528060018152602001603160f81b815250815260200160405180604001604052806003815260200162302e3560e81b815250815260200160405180604001604052806003815260200162302e3560e81b81525081525081526020016040518060800160405280604051806040016040528060018152602001603160f81b8152508152602001604051806040016040528060018152602001603160f81b815250815260200160405180604001604052806005815260200164302e36363760d81b815250815260200160405180604001604052806005815260200164302e33333360d81b81525081525081526020016040518060800160405280604051806040016040528060018152602001603160f81b815250815260200160405180604001604052806004815260200163302e373560e01b815250815260200160405180604001604052806003815260200162302e3560e81b815250815260200160405180604001604052806004815260200163302e323560e01b8152508152508152602001604051806080016040528060405180604001604052806005815260200164302e36363760d81b815250815260200160405180604001604052806005815260200164302e36363760d81b815250815260200160405180604001604052806005815260200164302e33333360d81b815250815260200160405180604001604052806005815260200164302e33333360d81b81525081525081526020016040518060800160405280604051806040016040528060038152602001620605c760eb1b81525081526020016040518060400160405280600381526020016218171b60e91b8152508152602001604051806040016040528060038152602001620c0b8d60ea1b81525081526020016040518060400160405280600381526020016218171960e91b8152508152508152602001604051806080016040528060405180604001604052806003815260200162302e3960e81b815250815260200160405180604001604052806003815260200162302e3960e81b815250815260200160405180604001604052806003815260200162302e3160e81b815250815260200160405180604001604052806003815260200162302e3160e81b81525081525081525060b8906010620020c292919062002773565b50604051806080016040528060405180604001604052806006815260200165139bdc9b585b60d21b8152508152602001604051806040016040528060048152602001632a3434b760e11b815250815260200160405180604001604052806005815260200164546869636b60d81b815250815260200160405180604001604052806008815260200167151a1a58dad95cdd60c21b81525081525060f89060046200216d929190620027c1565b50604080516080810182526002815260016020820152600391810191909152600460608201819052620021a39160fc91620027ff565b5060408051608081018252600081526101e560208201526104c691810191909152610af76060820152620021dc9060fd90600462002885565b5060408051610100810182526005815260076020820152600b918101919091526003606082015260176080820152600260a0820152602560c0820152600160e08201526200223090610101906008620025c8565b5060408051610100810182526000815260cf60208201526101c0918101919091526102e1606082015261044c608082015261063160a082015261091260c0820152610f4360e08201526200228a9061010290600862002664565b50604080516080810182526001815260026020820152600491810182905260086060820152620022bf9161010a9190620027ff565b506040805160808082018352815260c06020820152610100918101919091526101806060820152620022f79061010b906004620028bb565b506040805161010081018252600d815260176020820152601d91810191909152601f606082015260296080820152602f60a0820152603b60c0820152604760e08201526200234b9061010c906008620025c8565b50604080516101808101909152605c61010082018181528291620073a761012084013981526020016040518060800160405280605d8152602001620072f9605d91398152602001604051806080016040528060518152602001620073566051913981526020016040518060a0016040528060618152602001620074036061913981526020016040518060800160405280605e81526020016200727b605e913981526020016040518060a0016040528060718152602001620074646071913981526020016040518060a0016040528060738152602001620072086073913981526020016040518060800160405280605f8152602001620074d5605f913990526200245a9061010d9060086200269b565b503480156200246857600080fd5b5060405162007534380380620075348339810160408190526200248b9162002bb5565b6040518060400160405280600f81526020016e26b7bb34b7339026b7b7323934b0b760891b815250604051806040016040528060058152602001644d4f4e444f60d81b8152508160009081620024e2919062002acc565b506001620024f1828262002acc565b5050506200250e620025086200257260201b60201c565b62002576565b600d80546001600160a01b038085166001600160a01b031992831617909255600e805492841692909116919091179055620025498462002576565b5050600b80546001600160a01b0319166001600160a01b03929092169190911790555062002c12565b3390565b600680546001600160a01b038381166001600160a01b0319831681179093556040519116919082907f8be0079c531659141344cd1fd0a4f28419497f9722a3daafe3b4186f6b6457e090600090a35050565b600183019183908215620026525791602002820160005b838211156200262057835183826101000a81548161ffff021916908360ff1602179055509260200192600201602081600101049283019260010302620025df565b8015620026505782816101000a81549061ffff021916905560020160208160010104928301926001030262002620565b505b506200266092915062002914565b5090565b826008810192821562002652579160200282015b8281111562002652578251829061ffff1690559160200191906001019062002678565b8260088101928215620026d9579160200282015b82811115620026d95782518290620026c8908262002acc565b5091602001919060010190620026af565b50620026609291506200292b565b60808301918390821562002727579160200282015b828111156200272757825162002716908390601062002735565b5091602001919060100190620026fc565b50620026609291506200294c565b8260108101928215620026d9579160200282015b82811115620026d9578251829062002762908262002acc565b509160200191906001019062002749565b604083019183908215620027b3579160200282015b82811115620027b3578251620027a29083906004620027c1565b509160200191906004019062002788565b50620026609291506200296d565b8260048101928215620026d9579160200282015b82811115620026d95782518290620027ee908262002acc565b5091602001919060010190620027d5565b600183019183908215620026525791602002820160005b838211156200285657835183826101000a81548160ff021916908360ff160217905550926020019260010160208160000104928301926001030262002816565b8015620026505782816101000a81549060ff021916905560010160208160000104928301926001030262002856565b826004810192821562002652579160200282018281111562002652578251829061ffff1690559160200191906001019062002678565b600183019183908215620026525791602002820160005b838211156200262057835183826101000a81548161ffff021916908361ffff1602179055509260200192600201602081600101049283019260010302620028d2565b5b8082111562002660576000815560010162002915565b80821115620026605760006200294282826200298e565b506001016200292b565b8082111562002660576000620029638282620029d0565b506010016200294c565b8082111562002660576000620029848282620029e1565b506004016200296d565b5080546200299c9062002a3d565b6000825580601f10620029ad575050565b601f016020900490600052602060002090810190620029cd919062002914565b50565b50620029cd9060108101906200292b565b506000620029f082826200298e565b50600101600062002a0282826200298e565b50600101600062002a1482826200298e565b5062002a259060010160006200298e565b565b634e487b7160e01b600052604160045260246000fd5b600181811c9082168062002a5257607f821691505b60208210810362002a7357634e487b7160e01b600052602260045260246000fd5b50919050565b601f82111562002ac757600081815260208120601f850160051c8101602086101562002aa25750805b601f850160051c820191505b8181101562002ac35782815560010162002aae565b5050505b505050565b81516001600160401b0381111562002ae85762002ae862002a27565b62002b008162002af9845462002a3d565b8462002a79565b602080601f83116001811462002b38576000841562002b1f5750858301515b600019600386901b1c1916600185901b17855562002ac3565b600085815260208120601f198616915b8281101562002b695788860151825594840194600190910190840162002b48565b508582101562002b885787850151600019600388901b60f8161c191681555b5050505050600190811b01905550565b80516001600160a01b038116811462002bb057600080fd5b919050565b6000806000806080858703121562002bcc57600080fd5b62002bd78562002b98565b935062002be76020860162002b98565b925062002bf76040860162002b98565b915062002c076060860162002b98565b905092959194509250565b6145e68062002c226000396000f3fe6080604052600436106101ee5760003560e01c806370a082311161010d578063a1db9782116100a0578063c6cdc8341161006f578063c6cdc83414610566578063c87b56dd14610586578063dfc8f4e0146105a6578063e985e9c5146105bb578063f2fde38b146105db57600080fd5b8063a1db9782146104ec578063a22cb4651461050c578063b88d4fde1461052c578063bdb4b8481461054c57600080fd5b80638c9d44ed116100dc5780638c9d44ed1461048f5780638da5cb5b146104a457806395d89b41146104c2578063996517cf146104d757600080fd5b806370a082311461041a578063715018a61461043a578063719b7c1d1461044f5780637931b3e41461046f57600080fd5b80632a55205a1161018557806342842e0e1161015457806342842e0e146103b057806344c66be7146103d05780636352211e146103e557806365c85fd51461040557600080fd5b80632a55205a1461031857806338af3eed146103575780633ccfd60b1461037757806342260b5d1461038c57600080fd5b80630aaffd2a116101c15780630aaffd2a146102a457806320e409b4146102c45780632350151e146102d757806323b872dd146102f857600080fd5b806301ffc9a7146101f357806306fdde0314610228578063081812fc1461024a578063095ea7b314610282575b600080fd5b3480156101ff57600080fd5b5061021361020e366004612d59565b6105fb565b60405190151581526020015b60405180910390f35b34801561023457600080fd5b5061023d61064d565b60405161021f9190612dc6565b34801561025657600080fd5b5061026a610265366004612dd9565b6106df565b6040516001600160a01b03909116815260200161021f565b34801561028e57600080fd5b506102a261029d366004612e0e565b610706565b005b3480156102b057600080fd5b506102a26102bf366004612e38565b610820565b6102a26102d2366004612dd9565b6108b8565b3480156102e357600080fd5b50600b5461021390600160a01b900460ff1681565b34801561030457600080fd5b506102a2610313366004612e53565b61092f565b34801561032457600080fd5b50610338610333366004612e8f565b610960565b604080516001600160a01b03909316835260208301919091520161021f565b34801561036357600080fd5b50600b5461026a906001600160a01b031681565b34801561038357600080fd5b506102a2610996565b34801561039857600080fd5b506103a2600c5481565b60405190815260200161021f565b3480156103bc57600080fd5b506102a26103cb366004612e53565b610a45565b3480156103dc57600080fd5b506103a2610a60565b3480156103f157600080fd5b5061026a610400366004612dd9565b610a81565b34801561041157600080fd5b506102a2610ae1565b34801561042657600080fd5b506103a2610435366004612e38565b610b64565b34801561044657600080fd5b506102a2610bea565b34801561045b57600080fd5b5061023d61046a366004612dd9565b610bfe565b34801561047b57600080fd5b506102a261048a366004612f5e565b610c2f565b34801561049b57600080fd5b506103a2610c47565b3480156104b057600080fd5b506006546001600160a01b031661026a565b3480156104ce57600080fd5b5061023d610c58565b3480156104e357600080fd5b506103a2601981565b3480156104f857600080fd5b506102a2610507366004612e0e565b610c67565b34801561051857600080fd5b506102a2610527366004612fb5565b610ce8565b34801561053857600080fd5b506102a2610547366004612fec565b610cf3565b34801561055857600080fd5b506103a2655af3107a400081565b34801561057257600080fd5b506102a2610581366004612dd9565b610d25565b34801561059257600080fd5b5061023d6105a1366004612dd9565b610e0b565b3480156105b257600080fd5b506103a2600a81565b3480156105c757600080fd5b506102136105d6366004613068565b610fcd565b3480156105e757600080fd5b506102a26105f6366004612e38565b610ffb565b60006001600160e01b031982166380ac58cd60e01b148061062c57506001600160e01b03198216635b5e139f60e01b145b8061064757506301ffc9a760e01b6001600160e01b03198316145b92915050565b60606000805461065c90613092565b80601f016020809104026020016040519081016040528092919081815260200182805461068890613092565b80156106d55780601f106106aa576101008083540402835291602001916106d5565b820191906000526020600020905b8154815290600101906020018083116106b857829003601f168201915b5050505050905090565b60006106ea82611071565b506000908152600460205260409020546001600160a01b031690565b600061071182610a81565b9050806001600160a01b0316836001600160a01b0316036107835760405162461bcd60e51b815260206004820152602160248201527f4552433732313a20617070726f76616c20746f2063757272656e74206f776e656044820152603960f91b60648201526084015b60405180910390fd5b336001600160a01b038216148061079f575061079f8133610fcd565b6108115760405162461bcd60e51b815260206004820152603d60248201527f4552433732313a20617070726f76652063616c6c6572206973206e6f7420746f60448201527f6b656e206f776e6572206f7220617070726f76656420666f7220616c6c000000606482015260840161077a565b61081b83836110d0565b505050565b61082861113e565b600b54600160a01b900460ff16156108965760405162461bcd60e51b815260206004820152602b60248201527f42656e6566696369617279206973206c6f636b656420616e642063616e6e6f7460448201526a0818994818da185b99d95960aa1b606482015260840161077a565b600b80546001600160a01b0319166001600160a01b0392909216919091179055565b6108c8655af3107a4000826130e2565b34146109225760405162461bcd60e51b815260206004820152602360248201527f4661696c656420746f2073656e64206d696e74436f737420455448207065722060448201526213919560ea1b606482015260840161077a565b61092c3382611198565b50565b61093933826113cc565b6109555760405162461bcd60e51b815260040161077a906130f9565b61081b83838361142b565b600b54600c546001600160a01b03909116906000906127109061098390856130e2565b61098d919061315c565b90509250929050565b600b546040516000916001600160a01b03169047908381818185875af1925050503d80600081146109e3576040519150601f19603f3d011682016040523d82523d6000602084013e6109e8565b606091505b505090508061092c5760405162461bcd60e51b815260206004820152602360248201527f4661696c656420746f2073656e6420457468657220746f2042656e656669636960448201526261727960e81b606482015260840161077a565b61081b83838360405180602001604052806000815250610cf3565b600854600090610a7260196001613170565b610a7c9190613183565b905090565b6000818152600260205260408120546001600160a01b0316806106475760405162461bcd60e51b8152602060048201526018602482015277115490cdcc8c4e881a5b9d985b1a59081d1bdad95b88125160421b604482015260640161077a565b610ae961113e565b600b54600160a01b900460ff1615610b4f5760405162461bcd60e51b815260206004820152602360248201527f42656e65666963696172792068617320616c7265616479206265656e206c6f636044820152621ad95960ea1b606482015260840161077a565b600b805460ff60a01b1916600160a01b179055565b60006001600160a01b038216610bce5760405162461bcd60e51b815260206004820152602960248201527f4552433732313a2061646472657373207a65726f206973206e6f7420612076616044820152683634b21037bbb732b960b91b606482015260840161077a565b506001600160a01b031660009081526003602052604090205490565b610bf261113e565b610bfc600061159c565b565b6060610c09826115ee565b604051602001610c1991906131b2565b6040516020818303038152906040529050919050565b610c3761113e565b6007610c4382826132ed565b5050565b60006001600854610a7c9190613183565b60606001805461065c90613092565b610c6f61113e565b60405163a9059cbb60e01b81523360048201526024810182905282906001600160a01b0382169063a9059cbb906044016020604051808303816000875af1158015610cbe573d6000803e3d6000fd5b505050506040513d601f19601f82011682018060405250810190610ce291906133ad565b50505050565b610c4333838361161d565b610cfd33836113cc565b610d195760405162461bcd60e51b815260040161077a906130f9565b610ce2848484846116eb565b610d2d61113e565b600b54600160a01b900460ff1615610da55760405162461bcd60e51b815260206004820152603560248201527f42656e6566696369617279206973206c6f636b65642c20726f79616c747920696044820152741b999bc818d85b9b9bdd081899481d5c19185d1959605a1b606482015260840161077a565b6101f4811115610e065760405162461bcd60e51b815260206004820152602660248201527f426173697320706f696e74732063616e6e6f742062652067726561746572207460448201526568616e20352560d01b606482015260840161077a565b600c55565b6000818152600260205260409020546060906001600160a01b0316610e725760405162461bcd60e51b815260206004820152601a60248201527f52657175657374656420696420646f65736e2774206578697374000000000000604482015260640161077a565b600060405180604001604052806006815260200165476f65726c6960d01b815250610e9c8461171e565b604051602001610ead9291906133ca565b60405160208183030381529060405290506000610ec98461171e565b60405180604001604052806006815260200165476f65726c6960d01b815250604051602001610ef9929190613417565b60405160208183030381529060405290506000610f1d610f1886610bfe565b6117b1565b9050600083836007610f2e8961171e565b604051602001610f41949392919061349c565b6040516020818303038152906040529050610fa381610f5f88611916565b610f7b610f6b8a610a81565b6001600160a01b03166014611b0e565b85604051602001610f8f94939291906135a2565b6040516020818303038152906040526117b1565b604051602001610fb39190613679565b604051602081830303815290604052945050505050919050565b6001600160a01b03918216600090815260056020908152604080832093909416825291909152205460ff1690565b61100361113e565b6001600160a01b0381166110685760405162461bcd60e51b815260206004820152602660248201527f4f776e61626c653a206e6577206f776e657220697320746865207a65726f206160448201526564647265737360d01b606482015260840161077a565b61092c8161159c565b6000818152600260205260409020546001600160a01b031661092c5760405162461bcd60e51b8152602060048201526018602482015277115490cdcc8c4e881a5b9d985b1a59081d1bdad95b88125160421b604482015260640161077a565b600081815260046020526040902080546001600160a01b0319166001600160a01b038416908117909155819061110582610a81565b6001600160a01b03167f8c5be1e5ebec7d5bd14f71427d1e84f3dd0314c0f7b2291e5b200ac8c7c3b92560405160405180910390a45050565b6006546001600160a01b03163314610bfc5760405162461bcd60e51b815260206004820181905260248201527f4f776e61626c653a2063616c6c6572206973206e6f7420746865206f776e6572604482015260640161077a565b8060001080156111a95750600a8111155b6112115760405162461bcd60e51b815260206004820152603360248201527f6e756d626572546f4d696e74206d757374206265206265747765656e203120616044820152726e64206d696e744d6178426174636853697a6560681b606482015260840161077a565b60196001826008546112239190613170565b61122d9190613183565b11156112a15760405162461bcd60e51b815260206004820152603760248201527f43616e6e6f74206d696e74206e756d626572546f4d696e74206265636175736560448201527f206d696e744c696d697420776f756c6420626520686974000000000000000000606482015260840161077a565b60005b8181101561081b5760088054600091826112bd836136be565b9091555090506112ce600143613183565b60408051914060208301526bffffffffffffffffffffffff1933606090811b8216928401929092523090911b16605482015260688101829052603160f81b608882015260890160408051601f19818403018152918152815160209283012060008481526009909352912055611344600143613183565b60408051914060208301526bffffffffffffffffffffffff1933606090811b8216928401929092523090911b16605482015260688101829052601960f91b608882015260890160408051601f1981840301815291815281516020928301206000848152600a9093529120556113b98482611c63565b50806113c4816136be565b9150506112a4565b6000806113d883610a81565b9050806001600160a01b0316846001600160a01b031614806113ff57506113ff8185610fcd565b806114235750836001600160a01b0316611418846106df565b6001600160a01b0316145b949350505050565b826001600160a01b031661143e82610a81565b6001600160a01b0316146114645760405162461bcd60e51b815260040161077a906136d7565b6001600160a01b0382166114c65760405162461bcd60e51b8152602060048201526024808201527f4552433732313a207472616e7366657220746f20746865207a65726f206164646044820152637265737360e01b606482015260840161077a565b6114d38383836001611c7d565b826001600160a01b03166114e682610a81565b6001600160a01b03161461150c5760405162461bcd60e51b815260040161077a906136d7565b600081815260046020908152604080832080546001600160a01b03199081169091556001600160a01b0387811680865260038552838620805460001901905590871680865283862080546001019055868652600290945282852080549092168417909155905184937fddf252ad1be2c89b69c2b068fc378daa952ba7f163c4a11628f55a4df523b3ef91a4505050565b600680546001600160a01b038381166001600160a01b0319831681179093556040519116919082907f8be0079c531659141344cd1fd0a4f28419497f9722a3daafe3b4186f6b6457e090600090a35050565b60606115f982611d05565b61160283611d85565b61160b84611da2565b604051602001610c199392919061371c565b816001600160a01b0316836001600160a01b03160361167e5760405162461bcd60e51b815260206004820152601960248201527f4552433732313a20617070726f766520746f2063616c6c657200000000000000604482015260640161077a565b6001600160a01b03838116600081815260056020908152604080832094871680845294825291829020805460ff191686151590811790915591519182527f17307eab39ab6107e8899845ad3d59bd9653f200f220920489ca2b5937696c31910160405180910390a3505050565b6116f684848461142b565b61170284848484611dd5565b610ce25760405162461bcd60e51b815260040161077a90613a3e565b6060600061172b83611ed6565b600101905060008167ffffffffffffffff81111561174b5761174b612eb1565b6040519080825280601f01601f191660200182016040528015611775576020820181803683370190505b5090508181016020015b600019016f181899199a1a9b1b9c1cb0b131b232b360811b600a86061a8153600a850494508461177f57509392505050565b606081516000036117d057505060408051602081019091526000815290565b600060405180606001604052806040815260200161457160409139905060006003845160026117ff9190613170565b611809919061315c565b6118149060046130e2565b90506000611823826020613170565b67ffffffffffffffff81111561183b5761183b612eb1565b6040519080825280601f01601f191660200182016040528015611865576020820181803683370190505b509050818152600183018586518101602084015b818310156118d1576003830192508251603f8160121c168501518253600182019150603f81600c1c168501518253600182019150603f8160061c168501518253600182019150603f8116850151825350600101611879565b6003895106600181146118eb57600281146118fc57611908565b613d3d60f01b600119830152611908565b603d60f81b6000198301525b509398975050505050505050565b60606119626040518060400160405280600681526020016552617269747960d01b81525061194384611fae565b604051806040016040528060018152602001600b60fa1b815250612018565b6119ab60405180604001604052806005815260200164536861706560d81b81525061198c85612050565b604051806040016040528060018152602001600b60fa1b81525061206d565b6119d5604051806040016040528060058152602001644672616d6560d81b81525061198c86612084565b6119ff604051806040016040528060058152602001644c696e657360d81b81525061198c876120a1565b611a516040518060400160405280600a8152602001694261736520416e676c6560b01b815250611a2e8861214f565b61ffff16604051806040016040528060018152602001600b60fa1b815250612018565b611a7e60405180604001604052806008815260200167223ab930ba34b7b760c11b815250611a2e8961218d565b611aaa60405180604001604052806007815260200166436f6c6f75727360c81b81525061198c8a61219b565b611af7604051806040016040528060098152602001684f706163697469657360b81b815250611ad88b6121b8565b604051806040016040528060018152602001605d60f81b81525061206d565b604051602001610c19989796959493929190613a90565b60606000611b1d8360026130e2565b611b28906002613170565b67ffffffffffffffff811115611b4057611b40612eb1565b6040519080825280601f01601f191660200182016040528015611b6a576020820181803683370190505b509050600360fc1b81600081518110611b8557611b85613b51565b60200101906001600160f81b031916908160001a905350600f60fb1b81600181518110611bb457611bb4613b51565b60200101906001600160f81b031916908160001a9053506000611bd88460026130e2565b611be3906001613170565b90505b6001811115611c5b576f181899199a1a9b1b9c1cb0b131b232b360811b85600f1660108110611c1757611c17613b51565b1a60f81b828281518110611c2d57611c2d613b51565b60200101906001600160f81b031916908160001a90535060049490941c93611c5481613b67565b9050611be6565b509392505050565b610c438282604051806020016040528060008152506121d5565b6001811115610ce2576001600160a01b03841615611cc3576001600160a01b03841660009081526003602052604081208054839290611cbd908490613183565b90915550505b6001600160a01b03831615610ce2576001600160a01b03831660009081526003602052604081208054839290611cfa908490613170565b909155505050505050565b600d546060906001600160a01b031663773d51eb611d2284612208565b6040518263ffffffff1660e01b8152600401611d4091815260200190565b600060405180830381865afa158015611d5d573d6000803e3d6000fd5b505050506040513d6000823e601f3d908101601f191682016040526106479190810190613b7e565b600e546060906001600160a01b03166322ced721611d228461222d565b6060611daf826000612249565b611dba836006612249565b611dc3846122d1565b604051602001610c1993929190613bec565b60006001600160a01b0384163b15611ecb57604051630a85bd0160e11b81526001600160a01b0385169063150b7a0290611e19903390899088908890600401613d1f565b6020604051808303816000875af1925050508015611e54575060408051601f3d908101601f19168201909252611e5191810190613d52565b60015b611eb1573d808015611e82576040519150601f19603f3d011682016040523d82523d6000602084013e611e87565b606091505b508051600003611ea95760405162461bcd60e51b815260040161077a90613a3e565b805181602001fd5b6001600160e01b031916630a85bd0160e11b149050611423565b506001949350505050565b60008072184f03e93ff9f4daa797ed6e38ed64bf6a1f0160401b8310611f155772184f03e93ff9f4daa797ed6e38ed64bf6a1f0160401b830492506040015b6d04ee2d6d415b85acef81000000008310611f41576d04ee2d6d415b85acef8100000000830492506020015b662386f26fc100008310611f5f57662386f26fc10000830492506010015b6305f5e1008310611f77576305f5e100830492506008015b6127108310611f8b57612710830492506004015b60648310611f9d576064830492506002015b600a83106106475760010192915050565b6000611fb98261234f565b611fc283612375565b611fcb84612392565b611fd48561239f565b611fdd866123ac565b611fe687612428565b611ff09190613170565b611ffa9190613170565b6120049190613170565b61200e9190613170565b6106479190613170565b60608361202484612445565b8360405160200161203793929190613d6f565b60405160208183030381529060405290505b9392505050565b600e546060906001600160a01b031663b5f4d839611d228461222d565b606083838360405160200161203793929190613e15565b600d546060906001600160a01b0316634f6d9d86611d2284612208565b606060f86120ae83612571565b600481106120be576120be613b51565b0180546120ca90613092565b80601f01602080910402602001604051908101604052809291908181526020018280546120f690613092565b80156121435780601f1061211857610100808354040283529160200191612143565b820191906000526020600020905b81548152906001019060200180831161212657829003601f168201915b50505050509050919050565b6000600f61215c8361258d565b6008811061216c5761216c613b51565b601091828204019190066002029054906101000a900461ffff169050919050565b600061010161215c836125a9565b606060186121a8836125c5565b600881106120be576120be613b51565b606060a86121c5836125e1565b601081106120be576120be613b51565b6121df83836125fd565b6121ec6000848484611dd5565b61081b5760405162461bcd60e51b815260040161077a90613a3e565b6000818152600a602052604081205461222490600560c4612796565b60ff1692915050565b6000818152600a602052604081205461222490600560ce612796565b606061225583836127c5565b61226984612264856001613170565b6127c5565b61227885612264866002613170565b61228786612264876003613170565b61229687612264886004613170565b6122a588612264896005613170565b6040516020016122ba96959493929190613e9e565b604051602081830303815290604052905092915050565b6060600060fc6122e084612571565b600481106122f0576122f0613b51565b602081049091015460ff601f9092166101000a900416905061231181612445565b61232761231f836002613f1d565b60ff16612445565b604051602001612338929190613f40565b604051602081830303815290604052915050919050565b600061010261235d836125a9565b6008811061236d5761236d613b51565b015492915050565b600060fd61238283612571565b6004811061236d5761236d613b51565b6000602061235d836125c5565b6000601061235d8361258d565b600d546000906001600160a01b03166371d44c1c6123c984612208565b6040518263ffffffff1660e01b81526004016123e791815260200190565b602060405180830381865afa158015612404573d6000803e3d6000fd5b505050506040513d601f19601f820116820180604052508101906106479190614144565b600e546000906001600160a01b031663442babdf6123c98461222d565b60608160000361246c5750506040805180820190915260018152600360fc1b602082015290565b8160005b81156124965780612480816136be565b915061248f9050600a8361315c565b9150612470565b60008167ffffffffffffffff8111156124b1576124b1612eb1565b6040519080825280601f01601f1916602001820160405280156124db576020820181803683370190505b509050815b8515612568576124f1600182613183565b90506000612500600a8861315c565b61250b90600a6130e2565b6125159088613183565b61252090603061415d565b905060008160f81b90508084848151811061253d5761253d613b51565b60200101906001600160f81b031916908160001a90535061255f600a8961315c565b975050506124e0565b50949350505050565b6000818152600a602052604081205461222490600260e4612796565b6000818152600a602052604081205461222490600360d8612796565b6000818152600a602052604081205461222490600360e8612796565b6000818152600a602052604081205461222490600360de612796565b6000818152600a602052604081205461222490600460c06128ab565b6001600160a01b0382166126535760405162461bcd60e51b815260206004820181905260248201527f4552433732313a206d696e7420746f20746865207a65726f2061646472657373604482015260640161077a565b6000818152600260205260409020546001600160a01b0316156126b85760405162461bcd60e51b815260206004820152601c60248201527f4552433732313a20746f6b656e20616c7265616479206d696e74656400000000604482015260640161077a565b6126c6600083836001611c7d565b6000818152600260205260409020546001600160a01b03161561272b5760405162461bcd60e51b815260206004820152601c60248201527f4552433732313a20746f6b656e20616c7265616479206d696e74656400000000604482015260640161077a565b6001600160a01b038216600081815260036020908152604080832080546001019055848352600290915280822080546001600160a01b0319168417905551839291907fddf252ad1be2c89b69c2b068fc378daa952ba7f163c4a11628f55a4df523b3ef908290a45050565b60006114236127a68585856128ab565b60ff166127bd86866127b8818861415d565b6128ab565b60ff166128e8565b6000828152600a60205260408120546060916127e08561214f565b905060006127f28386600660006128fe565b60ff169050600061280f6128068385614176565b61ffff16612445565b905060006128218588600160066128fe565b60ff161561284957604051806040016040528060028152602001612d3160f01b815250612864565b604051806040016040528060018152602001603160f81b8152505b905080826128728a8a61291e565b61287c8b8b612bc9565b60405160200161288f949392919061419c565b6040516020818303038152906040529550505050505092915050565b600060ff80831685901c906008908516106128c7579050612049565b6128d2846002614354565b6128df9060ff8316614363565b95945050505050565b60008183106128f75781612049565b5090919050565b60006128df858460ff85166129148860106130e2565b6127b89190613170565b60008281526009602052604081205460609160fc61293b86612571565b6004811061294b5761294b613b51565b602081049091015460ff601f9092166101000a9004169050600061296e866125e1565b9050600061297c8787612d00565b9050600060b8836010811061299357612993613b51565b6004020182600481106129a8576129a8613b51565b0180546129b490613092565b80601f01602080910402602001604051908101604052809291908181526020018280546129e090613092565b8015612a2d5780601f10612a0257610100808354040283529160200191612a2d565b820191906000526020600020905b815481529060010190602001808311612a1057829003601f168201915b505050505090506000612a8061010b612a4a888b600260066128fe565b60ff1660048110612a5d57612a5d613b51565b601091828204019190066002029054906101000a900461ffff1661ffff16612445565b90506000612aca61010a612a98898c600260086128fe565b60ff1660048110612aab57612aab613b51565b60208104919091015461231f91601f166101000a900460ff1688613f1d565b905060006028612ad98c6125c5565b60088110612ae957612ae9613b51565b60100201612af78c8c612d27565b60108110612b0757612b07613b51565b018054612b1390613092565b80601f0160208091040260200160405190810160405280929190818152602001828054612b3f90613092565b8015612b8c5780601f10612b6157610100808354040283529160200191612b8c565b820191906000526020600020905b815481529060010190602001808311612b6f57829003601f168201915b5050505050905082828286604051602001612baa9493929190614377565b6040516020818303038152906040529850505050505050505092915050565b600082815260096020526040812054606091612be48561218d565b9050600061010c612bf984876003600a6128fe565b60ff1660088110612c0c57612c0c613b51565b601091828204019190066002029054906101000a900461ffff1690506000612c3982846128069190614176565b9050600061010d612c4e86896003600d6128fe565b60ff1660088110612c6157612c61613b51565b018054612c6d90613092565b80601f0160208091040260200160405190810160405280929190818152602001828054612c9990613092565b8015612ce65780601f10612cbb57610100808354040283529160200191612ce6565b820191906000526020600020905b815481529060010190602001808311612cc957829003601f168201915b50505050509050818160405160200161288f929190614478565b600082815260096020526040812054612d1d9083600260046128fe565b60ff169392505050565b600082815260096020526040812054612d1d90836004846128fe565b6001600160e01b03198116811461092c57600080fd5b600060208284031215612d6b57600080fd5b813561204981612d43565b60005b83811015612d91578181015183820152602001612d79565b50506000910152565b60008151808452612db2816020860160208601612d76565b601f01601f19169290920160200192915050565b6020815260006120496020830184612d9a565b600060208284031215612deb57600080fd5b5035919050565b80356001600160a01b0381168114612e0957600080fd5b919050565b60008060408385031215612e2157600080fd5b612e2a83612df2565b946020939093013593505050565b600060208284031215612e4a57600080fd5b61204982612df2565b600080600060608486031215612e6857600080fd5b612e7184612df2565b9250612e7f60208501612df2565b9150604084013590509250925092565b60008060408385031215612ea257600080fd5b50508035926020909101359150565b634e487b7160e01b600052604160045260246000fd5b604051601f8201601f1916810167ffffffffffffffff81118282101715612ef057612ef0612eb1565b604052919050565b600067ffffffffffffffff821115612f1257612f12612eb1565b50601f01601f191660200190565b6000612f33612f2e84612ef8565b612ec7565b9050828152838383011115612f4757600080fd5b828260208301376000602084830101529392505050565b600060208284031215612f7057600080fd5b813567ffffffffffffffff811115612f8757600080fd5b8201601f81018413612f9857600080fd5b61142384823560208401612f20565b801515811461092c57600080fd5b60008060408385031215612fc857600080fd5b612fd183612df2565b91506020830135612fe181612fa7565b809150509250929050565b6000806000806080858703121561300257600080fd5b61300b85612df2565b935061301960208601612df2565b925060408501359150606085013567ffffffffffffffff81111561303c57600080fd5b8501601f8101871361304d57600080fd5b61305c87823560208401612f20565b91505092959194509250565b6000806040838503121561307b57600080fd5b61308483612df2565b915061098d60208401612df2565b600181811c908216806130a657607f821691505b6020821081036130c657634e487b7160e01b600052602260045260246000fd5b50919050565b634e487b7160e01b600052601160045260246000fd5b8082028115828204841417610647576106476130cc565b6020808252602d908201527f4552433732313a2063616c6c6572206973206e6f7420746f6b656e206f776e6560408201526c1c881bdc88185c1c1c9bdd9959609a1b606082015260800190565b634e487b7160e01b600052601260045260246000fd5b60008261316b5761316b613146565b500490565b80820180821115610647576106476130cc565b81810381811115610647576106476130cc565b600081516131a8818560208601612d76565b9290920192915050565b7f3c7376672076657273696f6e3d22312e31222069643d224c617965725f31222081527f786d6c6e733d22687474703a2f2f7777772e77332e6f72672f323030302f737660208201527f672220786d6c6e733a786c696e6b3d22687474703a2f2f7777772e77332e6f7260408201527f672f313939392f786c696e6b2220786d6c3a73706163653d227072657365727660608201527f65222076696577426f783d223020302035313220353132223e00000000000000608082015260008251613282816099850160208701612d76565b651e17b9bb339f60d11b6099939091019283015250609f01919050565b601f82111561081b57600081815260208120601f850160051c810160208610156132c65750805b601f850160051c820191505b818110156132e5578281556001016132d2565b505050505050565b815167ffffffffffffffff81111561330757613307612eb1565b61331b816133158454613092565b8461329f565b602080601f83116001811461335057600084156133385750858301515b600019600386901b1c1916600185901b1785556132e5565b600085815260208120601f198616915b8281101561337f57888601518255948401946001909101908401613360565b508582101561339d5787850151600019600388901b60f8161c191681555b5050505050600190811b01905550565b6000602082840312156133bf57600080fd5b815161204981612fa7565b600083516133dc818460208801612d76565b71204d6f76696e67204d6f6e647269616e202360701b908301908152835161340b816012840160208801612d76565b01601201949350505050565b7f54686973204d6f76696e67204d6f6e647269616e204e4654206861732069642081526000835161344f816020850160208801612d76565b80830190506a01030b7321034b99037b7160ad1b6020820152835161347b81602b840160208801612d76565b67206e6574776f726b60c01b602b9290910191820152603301949350505050565b683d913730b6b2911d1160b91b8152845160009060206134c28260098601838b01612d76565b71111610113232b9b1b934b83a34b7b7111d1160711b60099285019283015286516134f381601b8501848b01612d76565b721116101132bc3a32b93730b62fbab936111d1160691b601b93909101928301528554602e9060009061352581613092565b6001828116801561353d576001811461355657613586565b60ff198416888701528215158302880186019450613586565b8b6000528660002060005b8481101561357c5781548a8201890152908301908801613561565b5050858389010194505b505050506135948188613196565b9a9950505050505050505050565b600085516135b4818460208a01612d76565b7001116101130ba3a3934b13aba32b9911d1607d1b90830190815285516135e2816011840160208a01612d76565b6a16101137bbb732b9111d1160a91b60119290910191820152845161360e81601c840160208901612d76565b7f222c2022696d616765223a2022646174613a696d6167652f7376672b786d6c3b601c92909101918201526618985cd94d8d0b60ca1b603c820152835161365c816043840160208801612d76565b61227d60f01b604392909101918201526045019695505050505050565b7f646174613a6170706c69636174696f6e2f6a736f6e3b6261736536342c0000008152600082516136b181601d850160208701612d76565b91909101601d0192915050565b6000600182016136d0576136d06130cc565b5060010190565b60208082526025908201527f4552433732313a207472616e736665722066726f6d20696e636f72726563742060408201526437bbb732b960d91b606082015260800190565b7f3c646566733e3c6d61736b2069643d226672616d654f75746572223e3c67206681527f696c6c3d227768697465223e3c672069643d226672616d65496e6e657222207360208201527f74726f6b652d6c696e656a6f696e3d22726f756e64223e0000000000000000006040820152600084516137a0816057850160208901612d76565b7f3c2f673e3c2f673e3c2f6d61736b3e3c6d61736b2069643d2273686170654f756057918401918201527f746572223e3c7265637420783d22302220793d2230222077696474683d22353160778201527f3222206865696768743d22353132222066696c6c3d227768697465222f3e3c6760978201527f2066696c6c3d22626c61636b223e3c672069643d227368617065496e6e65722260b78201527f207374726f6b652d6c696e656a6f696e3d22726f756e64223e0000000000000060d782015284516138758160f0840160208901612d76565b7f3c2f673e3c2f673e3c2f6d61736b3e3c672069643d22636c6f636b436972636c60f092909101918201527f65734c61726765223e3c636972636c652063783d22323536222063793d2234386101108201527f2220723d223230222f3e3c636972636c652063783d223438222063793d2232356101308201527f362220723d223230222f3e3c636972636c652063783d22323536222063793d226101508201527f3436342220723d223230222f3e3c636972636c652063783d22343634222063796101708201527f3d223235362220723d223230222f3e3c2f673e3c672069643d22636c6f636b436101908201527f6972636c6573536d616c6c223e3c636972636c652063783d22323536222063796101b08201527f3d2234382220723d223132222f3e3c636972636c652063783d223438222063796101d08201527f3d223235362220723d223132222f3e3c636972636c652063783d2232353622206101f08201527f63793d223436342220723d223132222f3e3c636972636c652063783d223436346102108201527f222063793d223235362220723d223132222f3e3c2f673e3c2f646566733e0000610230820152613a3461024e820185613196565b9695505050505050565b60208082526032908201527f4552433732313a207472616e7366657220746f206e6f6e20455243373231526560408201527131b2b4bb32b91034b6b83632b6b2b73a32b960711b606082015260800190565b605b60f81b8152600060018a51613aad8183860160208f01612d76565b8a5190840190613ac38184840160208f01612d76565b8a51910190613ad88184840160208e01612d76565b8951910190613aed8184840160208d01612d76565b8851910190613b028184840160208c01612d76565b8751910190613b178184840160208b01612d76565b8651910190613b2c8184840160208a01612d76565b8551910190613b418184840160208901612d76565b01019a9950505050505050505050565b634e487b7160e01b600052603260045260246000fd5b600081613b7657613b766130cc565b506000190190565b600060208284031215613b9057600080fd5b815167ffffffffffffffff811115613ba757600080fd5b8201601f81018413613bb857600080fd5b8051613bc6612f2e82612ef8565b818152856020838501011115613bdb57600080fd5b6128df826020830160208601612d76565b7f3c67207374726f6b652d77696474683d223022207374726f6b653d22626c616381527f6b22207374726f6b652d6f7061636974793d223122206d61736b3d2275726c2860208201527f236672616d654f757465722922203e3c7265637420783d22302220793d22302260408201527f2077696474683d2235313222206865696768743d22353132222066696c6c3d226060820152673bb434ba3291179f60c11b608082015260008451613ca7816088850160208901612d76565b7f3c67206d61736b3d2275726c282373686170654f7574657229223e00000000006088918401918201528451613ce48160a3840160208901612d76565b808201915050631e17b39f60e11b8060a38301528451613d0b8160a7850160208901612d76565b60a792019182015260ab0195945050505050565b6001600160a01b0385811682528416602082015260408101839052608060608201819052600090613a3490830184612d9a565b600060208284031215613d6457600080fd5b815161204981612d43565b7f7b22646973706c61795f74797065223a20226e756d626572222c2022747261698152693a2fba3cb832911d101160b11b602082015260008451613dba81602a850160208901612d76565b6b0111610113b30b63ab2911d160a51b602a918401918201528451613de6816036840160208901612d76565b607d60f81b603692909101918201528351613e08816037840160208801612d76565b0160370195945050505050565b6f3d913a3930b4ba2fba3cb832911d101160811b81528351600090613e41816010850160208901612d76565b6c111610113b30b63ab2911d101160991b6010918401918201528451613e6e81601d840160208901612d76565b61227d60f01b601d92909101918201528351613e9181601f840160208801612d76565b01601f0195945050505050565b600087516020613eb18285838d01612d76565b885191840191613ec48184848d01612d76565b8851920191613ed68184848c01612d76565b8751920191613ee88184848b01612d76565b8651920191613efa8184848a01612d76565b8551920191613f0c8184848901612d76565b919091019998505050505050505050565b60ff8181168382160290811690818114613f3957613f396130cc565b5092915050565b701e339039ba3937b5b296bbb4b23a341e9160791b81528251600090613f6d816011850160208801612d76565b7f222066696c6c3d227472616e73706172656e74223e3c75736520687265663d226011918401918201527f237368617065496e6e657222207374726f6b653d22776869746522207472616e60318201527f73666f726d3d227363616c6528312e3030352922207472616e73666f726d2d6f60518201527f726967696e3d2232353620323536222f3e3c75736520687265663d222373686160718201527f7065496e6e657222207374726f6b653d22626c61636b222f3e3c2f673e3c672060918201526d39ba3937b5b296bbb4b23a341e9160911b60b182015283516140598160bf840160208801612d76565b7f222066696c6c3d227472616e73706172656e7422207374726f6b652d6f70616360bf92909101918201527f6974793d2231223e3c75736520687265663d22236672616d65496e6e6572222060df8201527f7374726f6b653d22776869746522207472616e73666f726d3d227363616c652860ff8201527f302e3939392922207472616e73666f726d2d6f726967696e3d2232353620323561011f8201527f36222f3e3c75736520687265663d22236672616d65496e6e657222207374726f61013f8201526f35b29e91313630b1b591179f1e17b39f60811b61015f82015261016f01949350505050565b60006020828403121561415657600080fd5b5051919050565b60ff8181168382160190811115610647576106476130cc565b61ffff818116838216028082169190828114614194576141946130cc565b505092915050565b7f3c67207472616e73666f726d2d6f726967696e3d22323536203235362220747281526e0c2dce6ccdee4da7a44e6c6c2d8ca5608b1b6020820152600085516141ec81602f850160208a01612d76565b6a058625240e4dee8c2e8ca560ab1b602f91840191820152855161421781603a840160208a01612d76565b6214911f60e91b603a9290910191820152845161423b81603d840160208901612d76565b845191019061425181603d840160208801612d76565b631e17b39f60e11b603d92909101918201526041019695505050505050565b600181815b808511156142ab578160001904821115614291576142916130cc565b8085161561429e57918102915b93841c9390800290614275565b509250929050565b6000826142c257506001610647565b816142cf57506000610647565b81600181146142e557600281146142ef5761430b565b6001915050610647565b60ff841115614300576143006130cc565b50506001821b610647565b5060208310610133831016604e8410600b841016171561432e575081810a610647565b6143388383614270565b806000190482111561434c5761434c6130cc565b029392505050565b600061204960ff8416836142b3565b60008261437257614372613146565b500690565b7f3c7265637420783d222d313238222077696474683d223736382220793d222d3681526a1a11103432b4b3b43a1e9160a91b6020820152600085516143c381602b850160208a01612d76565b7f22207374726f6b653d22626c61636b22207374726f6b652d77696474683d2200602b91840191820152855161440081604a840160208a01612d76565b6711103334b6361e9160c11b604a92909101918201528451614429816052840160208901612d76565b6f11103334b63616b7b830b1b4ba3c9e9160811b60529290910191820152835161445a816062840160208801612d76565b6211179f60e91b606292909101918201526065019695505050505050565b7f3c616e696d6174655472616e73666f726d206475723d220000000000000000008152600083516144b0816017850160208801612d76565b6a3991103b30b63ab2b99e9160a91b60179184019182015283516144db816022840160208801612d76565b7f2220747970653d227472616e736c61746522206174747269627574654e616d65602292909101918201527f3d227472616e73666f726d2220617474726962757465547970653d22584d4c2260428201527f20726570656174436f756e743d22696e646566696e69746522206164646974696062820152693b329e9139bab691179f60b11b6082820152608c0194935050505056fe4142434445464748494a4b4c4d4e4f505152535455565758595a6162636465666768696a6b6c6d6e6f707172737475767778797a303132333435363738392b2fa26469706673582212200acac01020ce6075e0c2551614662778fd68713c30c4e0d0054a8074c776c12064736f6c6343000814003330203139323b30203139323b30203139323b30203235363b30203235363b30203235363b30203235363b30203132383b30203132383b30203132383b30203132383b30203139323b30203338343b30203338343b30203235363b3020303b3020303b3020303b3020303b3020303b302031393230203235363b30203235363b30203139323b302036343b3020303b3020303b3020303b3020303b3020303b3020303b30203132383b30203132383b30203139323b30203235363b30203235363b30203235363b30203235363b3020323536726762283232342c3232342c32323429000000000000000000000000000000003020303b3020303b30202d3132383b30202d3132383b30202d3132383b30202d3132383b30203132383b30203132383b30203132383b30203132383b30203132383b30203132383b30203132383b3020303b3020303b3020303b30203030203132383b30203132383b30203132383b30203132383b30203132383b30203132383b302039363b3020303b3020303b3020303b3020303b3020303b3020303b302036343b30203132383b30203132383020303b3020303b3020303b3020303b3020303b3020303b3020303b3020303b3020303b302033323b30203235363b30203235363b30203235363b30203235363b30203235363b30203235363b30203235363b30203139323b302030302036343b30203235363b30203139323b30203139323b30203139323b30203139323b30203132383b3020303b3020303b3020303b303b3020303b3020303b302036343b302036343b302036343b302036343b302036343b302036343b3020363430203235363b30203235363b30203132383b30203132383b30203132383b30203132383b30203338343b30203338343b30203338343b30203338343b30203338343b3020303b3020303b3020303b3020303b3020303b3020303b30203139323b30203235363b30203235363b302032353630203132383b30203132383b30203132383b30203132383b30203132383b302033323b3020303b3020303b3020303b3020303b3020303b3020303b3020303b3020303b302036343b30203139323b30203338343b30203338343b3020313238",
  "devdoc": {
    "events": {
      "Approval(address,address,uint256)": {
        "details": "Emitted when `owner` enables `approved` to manage the `tokenId` token."
      },
      "ApprovalForAll(address,address,bool)": {
        "details": "Emitted when `owner` enables or disables (`approved`) `operator` to manage all of its assets."
      },
      "Transfer(address,address,uint256)": {
        "details": "Emitted when `tokenId` token is transferred from `from` to `to`."
      }
    },
    "kind": "dev",
    "methods": {
      "approve(address,uint256)": {
        "details": "See {IERC721-approve}."
      },
      "balanceOf(address)": {
        "details": "See {IERC721-balanceOf}."
      },
      "getApproved(uint256)": {
        "details": "See {IERC721-getApproved}."
      },
      "isApprovedForAll(address,address)": {
        "details": "See {IERC721-isApprovedForAll}."
      },
      "name()": {
        "details": "See {IERC721Metadata-name}."
      },
      "owner()": {
        "details": "Returns the address of the current owner."
      },
      "ownerOf(uint256)": {
        "details": "See {IERC721-ownerOf}."
      },
      "renounceOwnership()": {
        "details": "Leaves the contract without owner. It will not be possible to call `onlyOwner` functions anymore. Can only be called by the current owner. NOTE: Renouncing ownership will leave the contract without an owner, thereby removing any functionality that is only available to the owner."
      },
      "royaltyInfo(uint256,uint256)": {
        "params": {
          "_salePrice": "- the sale price of the NFT asset specified by _tokenId",
          "_tokenId": "- the NFT asset queried for royalty information"
        },
        "returns": {
          "receiver": "- address of who should be sent the royalty payment",
          "royaltyAmount": "- the royalty payment amount for _salePrice"
        }
      },
      "safeTransferFrom(address,address,uint256)": {
        "details": "See {IERC721-safeTransferFrom}."
      },
      "safeTransferFrom(address,address,uint256,bytes)": {
        "details": "See {IERC721-safeTransferFrom}."
      },
      "setApprovalForAll(address,bool)": {
        "details": "See {IERC721-setApprovalForAll}."
      },
      "supportsInterface(bytes4)": {
        "details": "See {IERC165-supportsInterface}."
      },
      "symbol()": {
        "details": "See {IERC721Metadata-symbol}."
      },
      "transferFrom(address,address,uint256)": {
        "details": "See {IERC721-transferFrom}."
      },
      "transferOwnership(address)": {
        "details": "Transfers ownership of the contract to a new account (`newOwner`). Can only be called by the current owner."
      }
    },
    "version": 1
  },
  "userdoc": {
    "kind": "user",
    "methods": {
      "withdraw()": {
        "notice": "Beneficiary handling - allow all ETH to be withdrawn from contract to beneficiary, and the owner to update or lock the beneficiary"
      }
    },
    "version": 1
  },
  "storageLayout": {
    "storage": [
      {
        "astId": 138,
        "contract": "contracts/MovingMondrian.sol:MovingMondrian",
        "label": "_name",
        "offset": 0,
        "slot": "0",
        "type": "t_string_storage"
      },
      {
        "astId": 140,
        "contract": "contracts/MovingMondrian.sol:MovingMondrian",
        "label": "_symbol",
        "offset": 0,
        "slot": "1",
        "type": "t_string_storage"
      },
      {
        "astId": 144,
        "contract": "contracts/MovingMondrian.sol:MovingMondrian",
        "label": "_owners",
        "offset": 0,
        "slot": "2",
        "type": "t_mapping(t_uint256,t_address)"
      },
      {
        "astId": 148,
        "contract": "contracts/MovingMondrian.sol:MovingMondrian",
        "label": "_balances",
        "offset": 0,
        "slot": "3",
        "type": "t_mapping(t_address,t_uint256)"
      },
      {
        "astId": 152,
        "contract": "contracts/MovingMondrian.sol:MovingMondrian",
        "label": "_tokenApprovals",
        "offset": 0,
        "slot": "4",
        "type": "t_mapping(t_uint256,t_address)"
      },
      {
        "astId": 158,
        "contract": "contracts/MovingMondrian.sol:MovingMondrian",
        "label": "_operatorApprovals",
        "offset": 0,
        "slot": "5",
        "type": "t_mapping(t_address,t_mapping(t_address,t_bool))"
      },
      {
        "astId": 7,
        "contract": "contracts/MovingMondrian.sol:MovingMondrian",
        "label": "_owner",
        "offset": 0,
        "slot": "6",
        "type": "t_address"
      },
      {
        "astId": 3101,
        "contract": "contracts/MovingMondrian.sol:MovingMondrian",
        "label": "externalUrl",
        "offset": 0,
        "slot": "7",
        "type": "t_string_storage"
      },
      {
        "astId": 3107,
        "contract": "contracts/MovingMondrian.sol:MovingMondrian",
        "label": "nextTokenId",
        "offset": 0,
        "slot": "8",
        "type": "t_uint256"
      },
      {
        "astId": 3111,
        "contract": "contracts/MovingMondrian.sol:MovingMondrian",
        "label": "generator1",
        "offset": 0,
        "slot": "9",
        "type": "t_mapping(t_uint256,t_uint256)"
      },
      {
        "astId": 3115,
        "contract": "contracts/MovingMondrian.sol:MovingMondrian",
        "label": "generator2",
        "offset": 0,
        "slot": "10",
        "type": "t_mapping(t_uint256,t_uint256)"
      },
      {
        "astId": 3117,
        "contract": "contracts/MovingMondrian.sol:MovingMondrian",
        "label": "beneficiary",
        "offset": 0,
        "slot": "11",
        "type": "t_address_payable"
      },
      {
        "astId": 3120,
        "contract": "contracts/MovingMondrian.sol:MovingMondrian",
        "label": "beneficiaryLocked",
        "offset": 20,
        "slot": "11",
        "type": "t_bool"
      },
      {
        "astId": 3123,
        "contract": "contracts/MovingMondrian.sol:MovingMondrian",
        "label": "royaltyBasisPoints",
        "offset": 0,
        "slot": "12",
        "type": "t_uint256"
      },
      {
        "astId": 3126,
        "contract": "contracts/MovingMondrian.sol:MovingMondrian",
        "label": "mf",
        "offset": 0,
        "slot": "13",
        "type": "t_contract(MondrianFrames)2911"
      },
      {
        "astId": 3129,
        "contract": "contracts/MovingMondrian.sol:MovingMondrian",
        "label": "ms",
        "offset": 0,
        "slot": "14",
        "type": "t_contract(MondrianShapes)3061"
      },
      {
        "astId": 3984,
        "contract": "contracts/MovingMondrian.sol:MovingMondrian",
        "label": "baseAngles",
        "offset": 0,
        "slot": "15",
        "type": "t_array(t_uint16)8_storage"
      },
      {
        "astId": 3997,
        "contract": "contracts/MovingMondrian.sol:MovingMondrian",
        "label": "baseAngleRarityMillibit",
        "offset": 0,
        "slot": "16",
        "type": "t_array(t_uint256)8_storage"
      },
      {
        "astId": 4054,
        "contract": "contracts/MovingMondrian.sol:MovingMondrian",
        "label": "colourPaletteNames",
        "offset": 0,
        "slot": "24",
        "type": "t_array(t_string_storage)8_storage"
      },
      {
        "astId": 4067,
        "contract": "contracts/MovingMondrian.sol:MovingMondrian",
        "label": "colourPaletteRarityMillibit",
        "offset": 0,
        "slot": "32",
        "type": "t_array(t_uint256)8_storage"
      },
      {
        "astId": 4210,
        "contract": "contracts/MovingMondrian.sol:MovingMondrian",
        "label": "colourPalettes",
        "offset": 0,
        "slot": "40",
        "type": "t_array(t_array(t_string_storage)16_storage)8_storage"
      },
      {
        "astId": 4294,
        "contract": "contracts/MovingMondrian.sol:MovingMondrian",
        "label": "opacityPaletteNames",
        "offset": 0,
        "slot": "168",
        "type": "t_array(t_string_storage)16_storage"
      },
      {
        "astId": 4381,
        "contract": "contracts/MovingMondrian.sol:MovingMondrian",
        "label": "opacityPalettes",
        "offset": 0,
        "slot": "184",
        "type": "t_array(t_array(t_string_storage)4_storage)16_storage"
      },
      {
        "astId": 4439,
        "contract": "contracts/MovingMondrian.sol:MovingMondrian",
        "label": "strokeWidthMultiplierNames",
        "offset": 0,
        "slot": "248",
        "type": "t_array(t_string_storage)4_storage"
      },
      {
        "astId": 4448,
        "contract": "contracts/MovingMondrian.sol:MovingMondrian",
        "label": "strokeWidthMultipliers",
        "offset": 0,
        "slot": "252",
        "type": "t_array(t_uint8)4_storage"
      },
      {
        "astId": 4457,
        "contract": "contracts/MovingMondrian.sol:MovingMondrian",
        "label": "strokeWidthMultiplierRarityMillibit",
        "offset": 0,
        "slot": "253",
        "type": "t_array(t_uint256)4_storage"
      },
      {
        "astId": 4514,
        "contract": "contracts/MovingMondrian.sol:MovingMondrian",
        "label": "durationMultipliers",
        "offset": 0,
        "slot": "257",
        "type": "t_array(t_uint16)8_storage"
      },
      {
        "astId": 4527,
        "contract": "contracts/MovingMondrian.sol:MovingMondrian",
        "label": "durationMultiplierRarityMillibit",
        "offset": 0,
        "slot": "258",
        "type": "t_array(t_uint256)8_storage"
      },
      {
        "astId": 4580,
        "contract": "contracts/MovingMondrian.sol:MovingMondrian",
        "label": "strokeWidths",
        "offset": 0,
        "slot": "266",
        "type": "t_array(t_uint8)4_storage"
      },
      {
        "astId": 4589,
        "contract": "contracts/MovingMondrian.sol:MovingMondrian",
        "label": "rectHeights",
        "offset": 0,
        "slot": "267",
        "type": "t_array(t_uint16)4_storage"
      },
      {
        "astId": 4602,
        "contract": "contracts/MovingMondrian.sol:MovingMondrian",
        "label": "durationSecondsList",
        "offset": 0,
        "slot": "268",
        "type": "t_array(t_uint16)8_storage"
      },
      {
        "astId": 4615,
        "contract": "contracts/MovingMondrian.sol:MovingMondrian",
        "label": "yMovementValues",
        "offset": 0,
        "slot": "269",
        "type": "t_array(t_string_storage)8_storage"
      }
    ],
    "types": {
      "t_address": {
        "encoding": "inplace",
        "label": "address",
        "numberOfBytes": "20"
      },
      "t_address_payable": {
        "encoding": "inplace",
        "label": "address payable",
        "numberOfBytes": "20"
      },
      "t_array(t_array(t_string_storage)16_storage)8_storage": {
        "base": "t_array(t_string_storage)16_storage",
        "encoding": "inplace",
        "label": "string[16][8]",
        "numberOfBytes": "4096"
      },
      "t_array(t_array(t_string_storage)4_storage)16_storage": {
        "base": "t_array(t_string_storage)4_storage",
        "encoding": "inplace",
        "label": "string[4][16]",
        "numberOfBytes": "2048"
      },
      "t_array(t_string_storage)16_storage": {
        "base": "t_string_storage",
        "encoding": "inplace",
        "label": "string[16]",
        "numberOfBytes": "512"
      },
      "t_array(t_string_storage)4_storage": {
        "base": "t_string_storage",
        "encoding": "inplace",
        "label": "string[4]",
        "numberOfBytes": "128"
      },
      "t_array(t_string_storage)8_storage": {
        "base": "t_string_storage",
        "encoding": "inplace",
        "label": "string[8]",
        "numberOfBytes": "256"
      },
      "t_array(t_uint16)4_storage": {
        "base": "t_uint16",
        "encoding": "inplace",
        "label": "uint16[4]",
        "numberOfBytes": "32"
      },
      "t_array(t_uint16)8_storage": {
        "base": "t_uint16",
        "encoding": "inplace",
        "label": "uint16[8]",
        "numberOfBytes": "32"
      },
      "t_array(t_uint256)4_storage": {
        "base": "t_uint256",
        "encoding": "inplace",
        "label": "uint256[4]",
        "numberOfBytes": "128"
      },
      "t_array(t_uint256)8_storage": {
        "base": "t_uint256",
        "encoding": "inplace",
        "label": "uint256[8]",
        "numberOfBytes": "256"
      },
      "t_array(t_uint8)4_storage": {
        "base": "t_uint8",
        "encoding": "inplace",
        "label": "uint8[4]",
        "numberOfBytes": "32"
      },
      "t_bool": {
        "encoding": "inplace",
        "label": "bool",
        "numberOfBytes": "1"
      },
      "t_contract(MondrianFrames)2911": {
        "encoding": "inplace",
        "label": "contract MondrianFrames",
        "numberOfBytes": "20"
      },
      "t_contract(MondrianShapes)3061": {
        "encoding": "inplace",
        "label": "contract MondrianShapes",
        "numberOfBytes": "20"
      },
      "t_mapping(t_address,t_bool)": {
        "encoding": "mapping",
        "key": "t_address",
        "label": "mapping(address => bool)",
        "numberOfBytes": "32",
        "value": "t_bool"
      },
      "t_mapping(t_address,t_mapping(t_address,t_bool))": {
        "encoding": "mapping",
        "key": "t_address",
        "label": "mapping(address => mapping(address => bool))",
        "numberOfBytes": "32",
        "value": "t_mapping(t_address,t_bool)"
      },
      "t_mapping(t_address,t_uint256)": {
        "encoding": "mapping",
        "key": "t_address",
        "label": "mapping(address => uint256)",
        "numberOfBytes": "32",
        "value": "t_uint256"
      },
      "t_mapping(t_uint256,t_address)": {
        "encoding": "mapping",
        "key": "t_uint256",
        "label": "mapping(uint256 => address)",
        "numberOfBytes": "32",
        "value": "t_address"
      },
      "t_mapping(t_uint256,t_uint256)": {
        "encoding": "mapping",
        "key": "t_uint256",
        "label": "mapping(uint256 => uint256)",
        "numberOfBytes": "32",
        "value": "t_uint256"
      },
      "t_string_storage": {
        "encoding": "bytes",
        "label": "string",
        "numberOfBytes": "32"
      },
      "t_uint16": {
        "encoding": "inplace",
        "label": "uint16",
        "numberOfBytes": "2"
      },
      "t_uint256": {
        "encoding": "inplace",
        "label": "uint256",
        "numberOfBytes": "32"
      },
      "t_uint8": {
        "encoding": "inplace",
        "label": "uint8",
        "numberOfBytes": "1"
      }
    }
  }
}