{
  "address": "0xc3eee72994cf470Fba8133C6220B8e3887914ACE",
  "abi": [
    {
      "inputs": [
        {
          "internalType": "uint256",
          "name": "index",
          "type": "uint256"
        }
      ],
      "name": "getFrame",
      "outputs": [
        {
          "internalType": "string",
          "name": "",
          "type": "string"
        }
      ],
      "stateMutability": "view",
      "type": "function"
    },
    {
      "inputs": [
        {
          "internalType": "uint256",
          "name": "index",
          "type": "uint256"
        }
      ],
      "name": "getFrameName",
      "outputs": [
        {
          "internalType": "string",
          "name": "",
          "type": "string"
        }
      ],
      "stateMutability": "view",
      "type": "function"
    },
    {
      "inputs": [
        {
          "internalType": "uint256",
          "name": "index",
          "type": "uint256"
        }
      ],
      "name": "getFrameRarityMillibit",
      "outputs": [
        {
          "internalType": "uint256",
          "name": "",
          "type": "uint256"
        }
      ],
      "stateMutability": "view",
      "type": "function"
    }
  ],
  "transactionHash": "0x0ab63544eed97da83ab54f8490162018f20b832e56a75427d636bb41212bea6a",
  "args": [],
  "numDeployments": 1,
  "solcInputHash": "47136f287978144e6dfe08e24c5e06c6",
  "bytecode": "0x60066104808181526553717561726560d01b6104a081905260809182526104c08381526104e082905260a05261050083815261052082905260c05261054083815261056082905260e0526105808381526105a0829052610100526105c08381526105e0919091526101205261060082815265436972636c6560d01b610620819052610140919091526106408381526106609190915261016052600f6106809081526e536d6f6f746865642053717561726560881b6106a05261018052600e6106c08181526d526f756e6465642053717561726560901b6106e0526101a05260076107008181526627b1ba30b3b7b760c91b610720526101c0526009610740818152682237b232b1b0b3b7b760b91b610760526101e0526008610780818152675371756972636c6560c01b6107a052610200526107c0868152650a6eec2e8c6d60d31b6107e0526102205261080082815268466f7572204567677360b81b6108205261024052610840838152662432bc30b3b7b760c91b610860526102605261088086815265436173746c6560d01b6108a0526102805260036108c090815262436f6760e81b6108e0526102a052610900818152672432b83a30b3b7b760c11b610920526102c052610940958652655a69677a616760d01b610960526102e09590955261098082815266526970706c657360c81b6109a052610300526109c09283526d2934b233b2b2102432bc30b3b7b760911b6109e052610320929092526005610a008181526414dc1b185d60da1b610a205261034052610a409081526410db1bdd5960da1b610a605261036052600d610a809081526c4672616d65642053717561726560981b610aa05261038052610ac0938452672832b73a30b3b7b760c11b610ae0526103a093909352610b009081526814d8d85b1b1bdc195960ba1b610b20526103c052610b40828152664261726f71756560c81b610b60526103e052600a610b809081526911995c9c9bd99b1d5a5960b21b610ba05261040052610bc09182526620b93a34b9b0b760c91b610be05261042091909152600b610c008181526a24b1b7b9b4ba3934b3b7b760a91b610c2081905261044091909152610c80604052610c40918252610c60526104605261033f906000906020610874565b50604080516104008101825260008082526020808301829052928201819052606082018190526080820181905260a082015261070760c0820181905260e0820152610b48610100820152610b87610120820152610bc9610140820152610c0d610160820152610c56610180820152610ca16101a0820152610cf26101c0820152610d476101e0820152610da1610200820152610e01610220820152610e68610240820152610ed7610260820152610f4f610280820152610fd36102a08201526110636102c08201526111036102e08201526111b86103008201526112876103208201526113786103408201526114996103608201526116046103808201526117e96103a082015261192b6103c082018190526103e08201526104629190816108bd565b50604080516104608101909152602c61040082018181528291612aea61042084013981526020016040518060600160405280602c8152602001612aea602c913981526020016040518060600160405280602c8152602001612aea602c913981526020016040518060600160405280602c8152602001612aea602c913981526020016040518060600160405280602c8152602001612aea602c913981526020016040518060600160405280602c8152602001612aea602c91398152602001604051806060016040528060238152602001612a40602391398152602001604051806060016040528060238152602001612a406023913981526020016040518060600160405280603c8152602001614111603c913981526020016040518060600160405280603e8152602001613616603e913981526020016040518060800160405280604b8152602001612888604b913981526020016040518060c0016040528060878152602001612a636087913981526020016040518060600160405280603c8152602001610fa2603c9139815260200160405180610740016040528061071d8152602001610fde61071d91398152602001604051806101600160405280610126815260200161414d61012691398152602001604051806080016040528060478152602001612f1c604791398152602001604051806106e001604052806106b38152602001612f636106b39139815260200160405180610140016040528061011581526020016128d3610115913981526020016040518060800160405280605881526020016129e86058913981526020016040518061020001604052806101ce8152602001610dd46101ce91398152602001604051806109c0016040528061098e815260200161365461098e9139815260200160405180610160016040528061012f8152602001613fe261012f913981526020016040518061044001604052806104068152602001612b1661040691398152602001604051806102a0016040528061026b81526020016117c361026b9139815260200160405180610100016040528060c881526020016116fb60c891398152602001604051806080016040528060488152602001614273604891398152602001604051806103c0016040528061039381526020016142bb610393913981526020016040518061014001604052806101208152602001611a2e6101209139815260200160405180610c600160405280610c328152602001611c56610c32913981526020016040518060c0016040528060938152602001610d416093913981526020016040518061014001604052806101088152602001611b4e610108913981526020016040518061014001604052806101088152602001611b4e61010891399052610861906040906020610874565b5034801561086e57600080fd5b50610aca565b82602081019282156108ad579160200282015b828111156108ad578251829061089d9082610a0b565b5091602001919060010190610887565b506108b99291506108fd565b5090565b82602081019282156108f1579160200282015b828111156108f1578251829061ffff169055916020019190600101906108d0565b506108b992915061091a565b808211156108b9576000610911828261092f565b506001016108fd565b5b808211156108b9576000815560010161091b565b50805461093b90610982565b6000825580601f1061094b575050565b601f016020900490600052602060002090810190610969919061091a565b50565b634e487b7160e01b600052604160045260246000fd5b600181811c9082168061099657607f821691505b6020821081036109b657634e487b7160e01b600052602260045260246000fd5b50919050565b601f821115610a0657600081815260208120601f850160051c810160208610156109e35750805b601f850160051c820191505b81811015610a02578281556001016109ef565b5050505b505050565b81516001600160401b03811115610a2457610a2461096c565b610a3881610a328454610982565b846109bc565b602080601f831160018114610a6d5760008415610a555750858301515b600019600386901b1c1916600185901b178555610a02565b600085815260208120601f198616915b82811015610a9c57888601518255948401946001909101908401610a7d565b5085821015610aba5787850151600019600388901b60f8161c191681555b5050505050600190811b01905550565b61026880610ad96000396000f3fe608060405234801561001057600080fd5b50600436106100415760003560e01c80634f6d9d861461004657806371d44c1c1461006f578063773d51eb14610090575b600080fd5b61005961005436600461017b565b6100a3565b6040516100669190610194565b60405180910390f35b61008261007d36600461017b565b610149565b604051908152602001610066565b61005961009e36600461017b565b610166565b6060600082602081106100b8576100b86101e2565b0180546100c4906101f8565b80601f01602080910402602001604051908101604052809291908181526020018280546100f0906101f8565b801561013d5780601f106101125761010080835404028352916020019161013d565b820191906000526020600020905b81548152906001019060200180831161012057829003601f168201915b50505050509050919050565b60006020826020811061015e5761015e6101e2565b015492915050565b6060604082602081106100b8576100b86101e2565b60006020828403121561018d57600080fd5b5035919050565b600060208083528351808285015260005b818110156101c1578581018301518582016040015282016101a5565b506000604082860101526040601f19601f8301168501019250505092915050565b634e487b7160e01b600052603260045260246000fd5b600181811c9082168061020c57607f821691505b60208210810361022c57634e487b7160e01b600052602260045260246000fd5b5091905056fea2646970667358221220680c4982f70d510c134f3ed7a5c9058d2b297dcfa5e563cd66aab7e6e01f9be664736f6c634300081400333c7061746820643d224d203020323330204c2031373520323332204c2032203232342043203020383020353020302032303020302043203435302030203531322037302035313220333133204c2034323020333035204c20353131203332302043203531322033353720343435203531322032363520353132204320383020353132203020343830203020323330205a222f3e3c706f6c79676f6e20706f696e74733d22302c33322033322c302036342c33322039362c30203132382c3332203136302c30203139322c3332203232342c30203235362c3332203238382c30203332302c3332203335322c30203338342c3332203431362c30203434382c3332203438302c30203438302c30203531322c3332203438302c3634203531322c3936203438302c313238203531322c313630203438302c313932203531322c323234203438302c323536203531322c323838203438302c333230203531322c333532203438302c333834203531322c343136203438302c343438203531322c343830203531322c343830203438302c353132203434382c343830203431362c353132203338342c343830203335322c353132203332302c343830203238382c353132203235362c343830203232342c353132203139322c343830203136302c353132203132382c3438302039362c3531322036342c3438302033322c3531322033322c35313220302c3438302033322c34343820302c3431362033322c33383420302c3335322033322c33323020302c3238382033322c32353620302c3232342033322c31393220302c3136302033322c31323820302c39362033322c3634222f3e3c7061746820643d224d2030203235362051203020302c20323536203020542035313220323536205420323536203531322054203020323536222f3e3c706f6c79676f6e20706f696e74733d22302c31312e312031312e312c302032322e332c31312e312033332e342c302034342e352c31312e312035352e372c302036362e382c31312e312037372e392c302038392c31312e31203130302e322c30203131312e332c31312e31203132322e342c30203133332e362c31312e31203134342e372c30203135352e382c31312e31203136372c30203137382e312c31312e31203138392e322c30203230302e332c31312e31203231312e352c30203232322e362c31312e31203233332e372c30203234342e392c31312e31203235362c30203236372e312c31312e31203237382e332c30203238392e342c31312e31203330302e352c30203331312e372c31312e31203332322e382c30203333332e392c31312e31203334352c30203335362e322c31312e31203336372e332c30203337382e342c31312e31203338392e362c30203430302e372c31312e31203431312e382c30203432332c31312e31203433342e312c30203434352e322c31312e31203435362e332c30203436372e352c31312e31203437382e362c30203438392e372c31312e31203530302e392c30203530302e392c30203531322c31312e31203530302e392c32322e33203531322c33332e34203530302e392c34342e35203531322c35352e37203530302e392c36362e38203531322c37372e39203530302e392c3839203531322c3130302e32203530302e392c3131312e33203531322c3132322e34203530302e392c3133332e36203531322c3134342e37203530302e392c3135352e38203531322c313637203530302e392c3137382e31203531322c3138392e32203530302e392c3230302e33203531322c3231312e35203530302e392c3232322e36203531322c3233332e37203530302e392c3234342e39203531322c323536203530302e392c3236372e31203531322c3237382e33203530302e392c3238392e34203531322c3330302e35203530302e392c3331312e37203531322c3332322e38203530302e392c3333332e39203531322c333435203530302e392c3335362e32203531322c3336372e33203530302e392c3337382e34203531322c3338392e36203530302e392c3430302e37203531322c3431312e38203530302e392c343233203531322c3433342e31203530302e392c3434352e32203531322c3435362e33203530302e392c3436372e35203531322c3437382e36203530302e392c3438392e37203531322c3530302e39203531322c3530302e39203530302e392c353132203438392e372c3530302e39203437382e362c353132203436372e352c3530302e39203435362e332c353132203434352e322c3530302e39203433342e312c353132203432332c3530302e39203431312e382c353132203430302e372c3530302e39203338392e362c353132203337382e342c3530302e39203336372e332c353132203335362e322c3530302e39203334352c353132203333332e392c3530302e39203332322e382c353132203331312e372c3530302e39203330302e352c353132203238392e342c3530302e39203237382e332c353132203236372e312c3530302e39203235362c353132203234342e392c3530302e39203233332e372c353132203232322e362c3530302e39203231312e352c353132203230302e332c3530302e39203138392e322c353132203137382e312c3530302e39203136372c353132203135352e382c3530302e39203134342e372c353132203133332e362c3530302e39203132322e342c353132203131312e332c3530302e39203130302e322c3531322038392c3530302e392037372e392c3531322036362e382c3530302e392035352e372c3531322034342e352c3530302e392033332e342c3531322032322e332c3530302e392031312e312c3531322031312e312c35313220302c3530302e392031312e312c3438392e3720302c3437382e362031312e312c3436372e3520302c3435362e332031312e312c3434352e3220302c3433342e312031312e312c34323320302c3431312e382031312e312c3430302e3720302c3338392e362031312e312c3337382e3420302c3336372e332031312e312c3335362e3220302c3334352031312e312c3333332e3920302c3332322e382031312e312c3331312e3720302c3330302e352031312e312c3238392e3420302c3237382e332031312e312c3236372e3120302c3235362031312e312c3234342e3920302c3233332e372031312e312c3232322e3620302c3231312e352031312e312c3230302e3320302c3138392e322031312e312c3137382e3120302c3136372031312e312c3135352e3820302c3134342e372031312e312c3133332e3620302c3132322e342031312e312c3131312e3320302c3130302e322031312e312c383920302c37372e392031312e312c36362e3820302c35352e372031312e312c34342e3520302c33332e342031312e312c32322e3320302c31312e31222f3e3c7061746820643d224d2030203634204120363420363420302030203020363420302041203230303020323030302030203020302034343820302041203634203634203020302030203531322036342041203230303020323030302030203020302035313220343438204120363420363420302030203020343438203531322041203230303020323030302030203020302036342035313220412036342036342030203020302030203434382041203230303020323030302030203020302030203634205a222f3e3c7061746820643d224d20363420333220412033322033322030203020312031323820333220412033322033322030203020312031393220333220412033322033322030203020312032353620333220412033322033322030203020312033323020333220412033322033322030203020312033383420333220412033322033322030203020312034343820333220412033322033322030203120312034383020363420412033322033322030203020312034383020313238204120333220333220302030203120343830203139322041203332203332203020302031203438302032353620412033322033322030203020312034383020333230204120333220333220302030203120343830203338342041203332203332203020302031203438302034343820412033322033322030203120312034343820343830204120333220333220302030203120333834203438302041203332203332203020302031203332302034383020412033322033322030203020312032353620343830204120333220333220302030203120313932203438302041203332203332203020302031203132382034383020412033322033322030203020312036342034383020412033322033322030203120312033322034343820412033322033322030203020312033322033383420412033322033322030203020312033322033323020412033322033322030203020312033322032353620412033322033322030203020312033322031393220412033322033322030203020312033322031323820412033322033322030203020312033322036342041203332203332203020312031203634203332205a222f3e3c7061746820643d224d203020333220412032342032342030203020302033322030204320313238203020323430203634203235362030204320323732203634203338342030203438302030204120323420323420302030203020353132203332204320353132203132382034343820323430203531322032353620432034343820323732203531322033383420353132203438302041203234203234203020302030203438302035313220432033383420353132203237322034343820323536203531322043203234302034343820313238203531322033322035313220412032342032342030203020302030203438302043203020333834203634203237322030203235362043203634203234302030203132382030203332205a222f3e3c706f6c79676f6e20706f696e74733d223235362c30203332352e312c392e35203338392c33372e33203434332e312c38312e33203438332e332c3133382e32203530362e362c3230332e39203531312e342c3237332e35203439372e322c3334312e37203436352e312c3430332e36203431372e362c3435342e36203335382c3439302e38203239302e392c3530392e36203232312e312c3530392e36203135342c3439302e382039342e342c3435342e362034362e392c3430332e362031342e382c3334312e3720302e362c3237332e3520352e342c3230332e392032382e372c3133382e322036382e392c38312e33203132332c33372e33203138362e392c392e35222f3e3c7061746820643d224d20302031342043203020372037203020313420302043203234203020323920313220333420313220432033392031322034342030203439203020432035342030203539203137203634203137204320363920313720373420302037392030204320383420302038392032302039342032302043203939203230203130342030203130392030204320313134203020313139203232203132342032322043203132392032322031333420302031333920302043203134342030203134392032332e32203135342032332e322043203135392032332e322031363420302031363920302043203137342030203137392032342031383420323420432031383920323420313934203020313939203020432032303420302032303920323420323134203234204320323139203234203232342030203232392030204320323334203020323339203234203234342032342043203234392032342032353420302032353920302043203236342030203236392032342032373420323420432032373920323420323834203020323839203020432032393420302032393920323420333034203234204320333039203234203331342030203331392030204320333234203020333239203234203333342032342043203333392032342033343420302033343920302043203335342030203335392032332e32203336342032332e322043203336392032332e322033373420302033373920302043203338342030203338392032322033393420323220432033393920323220343034203020343039203020432034313420302034313920323020343234203230204320343239203230203433342030203433392030204320343434203020343439203137203435342031372043203435392031372034363420302034363920302043203437342030203437392031322034383420313220432034383920313220343934203020343938203020432035303520302035313220372035313220313420432035313220323420353030203239203530302033342043203530302033392035313220343420353132203439204320353132203534203439352035392034393520363420432034393520363920353132203734203531322037392043203531322038342034393220383920343932203934204320343932203939203531322031303420353132203130392043203531322031313420343930203131392034393020313234204320343930203132392035313220313334203531322031333920432035313220313434203438382e3820313439203438382e38203135342043203438382e38203135392035313220313634203531322031363920432035313220313734203438382031373920343838203138342043203438382031383920353132203139342035313220313939204320353132203230342034383820323039203438382032313420432034383820323139203531322032323420353132203232392043203531322032333420343838203233392034383820323434204320343838203234392035313220323534203531322032353920432035313220323634203438382032363920343838203237342043203438382032373920353132203238342035313220323839204320353132203239342034383820323939203438382033303420432034383820333039203531322033313420353132203331392043203531322033323420343838203332392034383820333334204320343838203333392035313220333434203531322033343920432035313220333534203438382e3820333539203438382e38203336342043203438382e382033363920353132203337342035313220333739204320353132203338342034393020333839203439302033393420432034393020333939203531322034303420353132203430392043203531322034313420343932203431392034393220343234204320343932203432392035313220343334203531322034333920432035313220343434203439352034343920343935203435342043203439352034353920353132203436342035313220343639204320353132203437342035303020343739203530302034383420432035303020343839203531322034393420353132203439382043203531322035303520353035203531322034393820353132204320343838203531322034383320353030203437382035303020432034373320353030203436382035313220343633203531322043203435382035313220343533203439352034343820343935204320343433203439352034333820353132203433332035313220432034323820353132203432332034393220343138203439322043203431332034393220343038203531322034303320353132204320333938203531322033393320343930203338382034393020432033383320343930203337382035313220333733203531322043203336382035313220333633203438382e3820333538203438382e38204320333533203438382e38203334382035313220333433203531322043203333382035313220333333203438382033323820343838204320333233203438382033313820353132203331332035313220432033303820353132203330332034383820323938203438382043203239332034383820323838203531322032383320353132204320323738203531322032373320343838203236382034383820432032363320343838203235382035313220323533203531322043203234382035313220323433203438382032333820343838204320323333203438382032323820353132203232332035313220432032313820353132203231332034383820323038203438382043203230332034383820313938203531322031393320353132204320313838203531322031383320343838203137382034383820432031373320343838203136382035313220313633203531322043203135382035313220313533203438382e3820313438203438382e38204320313433203438382e38203133382035313220313333203531322043203132382035313220313233203439302031313820343930204320313133203439302031303820353132203130332035313220432039382035313220393320343932203838203439322043203833203439322037382035313220373320353132204320363820353132203633203439352035382034393520432035332034393520343820353132203433203531322043203338203531322033332035303020323820353030204320323320353030203138203531322031342035313220432037203531322030203530352030203439382043203020343838203132203438332031322034373820432031322034373320302034363820302034363320432030203435382031372034353320313720343438204320313720343433203020343338203020343333204320302034323820323020343233203230203431382043203230203431332030203430382030203430332043203020333938203232203339332032322033383820432032322033383320302033373820302033373320432030203336382032332e32203336332032332e322033353820432032332e322033353320302033343820302033343320432030203333382032342033333320323420333238204320323420333233203020333138203020333133204320302033303820323420333033203234203239382043203234203239332030203238382030203238332043203020323738203234203237332032342032363820432032342032363320302032353820302032353320432030203234382032342032343320323420323338204320323420323333203020323238203020323233204320302032313820323420323133203234203230382043203234203230332030203139382030203139332043203020313838203234203138332032342031373820432032342031373320302031363820302031363320432030203135382032332e32203135332032332e322031343820432032332e322031343320302031333820302031333320432030203132382032322031323320323220313138204320323220313133203020313038203020313033204320302039382032302039332032302038382043203230203833203020373820302037332043203020363820313720363320313720353820432031372035332030203438203020343320432030203338203132203333203132203238204320313220323320302031382030203134205a222f3e3c706f6c79676f6e20706f696e74733d223135302c30203336322c30203531322c313530203531322c333632203336322c353132203135302c35313220302c33363220302c313530222f3e3c67207472616e73666f726d3d22726f74617465283930203235362032353629223e3c706f6c79676f6e20706f696e74733d223138382c33342e33203138382c30203332342c30203332342c33342e33203431342c38362e33203434332e372c36392e31203531312e372c3138362e39203438322c323034203438322c333038203531312e372c3332352e31203434332e372c3434322e39203431342c3432352e37203332342c3437372e37203332342c353132203138382c353132203138382c3437372e372039382c3432352e372036382e332c3434322e3920302e332c3332352e312033302c3330382033302c32303420302e332c3138362e392036382e332c36392e312039382c38362e33222f3e3c2f673e3c706f6c79676f6e20706f696e74733d223235362c30203435362e312c39362e34203530352e362c333133203336372e312c3438362e36203134342e392c3438362e3620362e342c3331332035352e392c39362e34222f3e3c636972636c652063783d22323536222063793d223235362220723d22323536222f3e3c706f6c79676f6e20706f696e74733d223138372e342c30203332342e362c30203434332e342c36382e36203531322c3138372e34203531322c3332342e36203434332e342c3434332e34203332342e362c353132203138372e342c3531322036382e362c3434332e3420302c3332342e3620302c3138372e342036382e362c36382e36222f3e3c7265637420783d22302220793d2230222077696474683d2235313222206865696768743d22353132222f3e3c7061746820643d224d20302031362043203020382038203020313620302043203332203020343820313620363420313620432038302031362039362030203131322030204320313238203020313434203136203136302031362043203137362031362031393220302032303820302043203232342030203234302031362032353620313620432032373220313620323838203020333034203020432033323020302033333620313620333532203136204320333638203136203338342030203430302030204320343136203020343332203136203434382031362043203436342031362034383020302034393620302043203530342030203531322038203531322031362043203531322033322034393620343820343936203634204320343936203830203531322039362035313220313132204320353132203132382034393620313434203439362031363020432034393620313736203531322031393220353132203230382043203531322032323420343936203234302034393620323536204320343936203237322035313220323838203531322033303420432035313220333230203439362033333620343936203335322043203439362033363820353132203338342035313220343030204320353132203431362034393620343332203439362034343820432034393620343634203531322034383020353132203439362043203531322035303420353034203531322034393620353132204320343830203531322034363420343936203434382034393620432034333220343936203431362035313220343030203531322043203338342035313220333638203439362033353220343936204320333336203439362033323020353132203330342035313220432032383820353132203237322034393620323536203439362043203234302034393620323234203531322032303820353132204320313932203531322031373620343936203136302034393620432031343420343936203132382035313220313132203531322043203936203531322038302034393620363420343936204320343820343936203332203531322031362035313220432038203531322030203530342030203439362043203020343830203136203436342031362034343820432031362034333220302034313620302034303020432030203338342031362033363820313620333532204320313620333336203020333230203020333034204320302032383820313620323732203136203235362043203136203234302030203232342030203230382043203020313932203136203137362031362031363020432031362031343420302031323820302031313220432030203936203136203830203136203634204320313620343820302033322030203136205a222f3e3c706f6c79676f6e20706f696e74733d22302c323536203132382c33342e33203338342c33342e33203531322c323536203338342c3437372e37203132382c3437372e37222f3e3c706f6c79676f6e20706f696e74733d22302c32322e332032322e332c32322e332032322e332c302034342e352c302034342e352c32322e332036362e382c32322e332036362e382c302038392c302038392c32322e33203131312e332c32322e33203131312e332c30203133332e362c30203133332e362c32322e33203135352e382c32322e33203135352e382c30203137382e312c30203137382e312c32322e33203230302e332c32322e33203230302e332c30203232322e362c30203232322e362c32322e33203234342e392c32322e33203234342e392c30203236372e312c30203236372e312c32322e33203238392e342c32322e33203238392e342c30203331312e372c30203331312e372c32322e33203333332e392c32322e33203333332e392c30203335362e322c30203335362e322c32322e33203337382e342c32322e33203337382e342c30203430302e372c30203430302e372c32322e33203432332c32322e33203432332c30203434352e322c30203434352e322c32322e33203436372e352c32322e33203436372e352c30203438392e372c30203438392e372c32322e33203531322c32322e33203531322c34342e35203438392e372c34342e35203438392e372c36362e38203531322c36362e38203531322c3839203438392e372c3839203438392e372c3131312e33203531322c3131312e33203531322c3133332e36203438392e372c3133332e36203438392e372c3135352e38203531322c3135352e38203531322c3137382e31203438392e372c3137382e31203438392e372c3230302e33203531322c3230302e33203531322c3232322e36203438392e372c3232322e36203438392e372c3234342e39203531322c3234342e39203531322c3236372e31203438392e372c3236372e31203438392e372c3238392e34203531322c3238392e34203531322c3331312e37203438392e372c3331312e37203438392e372c3333332e39203531322c3333332e39203531322c3335362e32203438392e372c3335362e32203438392e372c3337382e34203531322c3337382e34203531322c3430302e37203438392e372c3430302e37203438392e372c343233203531322c343233203531322c3434352e32203438392e372c3434352e32203438392e372c3436372e35203531322c3436372e35203531322c3438392e37203438392e372c3438392e37203438392e372c353132203436372e352c353132203436372e352c3438392e37203434352e322c3438392e37203434352e322c353132203432332c353132203432332c3438392e37203430302e372c3438392e37203430302e372c353132203337382e342c353132203337382e342c3438392e37203335362e322c3438392e37203335362e322c353132203333332e392c353132203333332e392c3438392e37203331312e372c3438392e37203331312e372c353132203238392e342c353132203238392e342c3438392e37203236372e312c3438392e37203236372e312c353132203234342e392c353132203234342e392c3438392e37203232322e362c3438392e37203232322e362c353132203230302e332c353132203230302e332c3438392e37203137382e312c3438392e37203137382e312c353132203135352e382c353132203135352e382c3438392e37203133332e362c3438392e37203133332e362c353132203131312e332c353132203131312e332c3438392e372038392c3438392e372038392c3531322036362e382c3531322036362e382c3438392e372034342e352c3438392e372034342e352c3531322032322e332c3531322032322e332c3438392e3720302c3438392e3720302c3436372e352032322e332c3436372e352032322e332c3434352e3220302c3434352e3220302c3432332032322e332c3432332032322e332c3430302e3720302c3430302e3720302c3337382e342032322e332c3337382e342032322e332c3335362e3220302c3335362e3220302c3333332e392032322e332c3333332e392032322e332c3331312e3720302c3331312e3720302c3238392e342032322e332c3238392e342032322e332c3236372e3120302c3236372e3120302c3234342e392032322e332c3234342e392032322e332c3232322e3620302c3232322e3620302c3230302e332032322e332c3230302e332032322e332c3137382e3120302c3137382e3120302c3135352e382032322e332c3135352e382032322e332c3133332e3620302c3133332e3620302c3131312e332032322e332c3131312e332032322e332c383920302c383920302c36362e382032322e332c36362e382032322e332c34342e3520302c34342e35222f3e3c7265637420783d22302220793d2230222072783d22313238222072793d22313238222077696474683d2235313222206865696768743d22353132222f3e3c7061746820643d224d20302032302043203020313020313020302032302030204320323620302033322036203338203620432034342036203530203020353620302043203632203020363820362037342036204320383020362038362030203932203020432039382030203130342036203131302036204320313136203620313232203020313238203020432031333420302031343020362031343620362043203135322036203135382030203136342030204320313730203020313736203620313832203620432031383820362031393420302032303020302043203230362030203231322036203231382036204320323234203620323330203020323336203020432032343220302032343820362032353420362043203236302036203236362030203237322030204320323738203020323834203620323930203620432032393620362033303220302033303820302043203331342030203332302036203332362036204320333332203620333338203020333434203020432033353020302033353620362033363220362043203336382036203337342030203338302030204320333836203020333932203620333938203620432034303420362034313020302034313620302043203432322030203432382036203433342036204320343430203620343436203020343532203020432034353820302034363420362034373020362043203437362036203438322030203439322030204320353032203020353132203130203531322032302043203531322032362035303620333220353036203338204320353036203434203531322035302035313220353620432035313220363220353036203638203530362037342043203530362038302035313220383620353132203932204320353132203938203530362031303420353036203131302043203530362031313620353132203132322035313220313238204320353132203133342035303620313430203530362031343620432035303620313532203531322031353820353132203136342043203531322031373020353036203137362035303620313832204320353036203138382035313220313934203531322032303020432035313220323036203530362032313220353036203231382043203530362032323420353132203233302035313220323336204320353132203234322035303620323438203530362032353420432035303620323630203531322032363620353132203237322043203531322032373820353036203238342035303620323930204320353036203239362035313220333032203531322033303820432035313220333134203530362033323020353036203332362043203530362033333220353132203333382035313220333434204320353132203335302035303620333536203530362033363220432035303620333638203531322033373420353132203338302043203531322033383620353036203339322035303620333938204320353036203430342035313220343130203531322034313620432035313220343232203530362034323820353036203433342043203530362034343020353132203434362035313220343532204320353132203435382035303620343634203530362034373020432035303620343736203531322034383220353132203439322043203531322035303220353032203531322034393220353132204320343836203531322034383020353036203437342035303620432034363820353036203436322035313220343536203531322043203435302035313220343434203530362034333820353036204320343332203530362034323620353132203432302035313220432034313420353132203430382035303620343032203530362043203339362035303620333930203531322033383420353132204320333738203531322033373220353036203336362035303620432033363020353036203335342035313220333438203531322043203334322035313220333336203530362033333020353036204320333234203530362033313820353132203331322035313220432033303620353132203330302035303620323934203530362043203238382035303620323832203531322032373620353132204320323730203531322032363420353036203235382035303620432032353220353036203234362035313220323430203531322043203233342035313220323238203530362032323220353036204320323136203530362032313020353132203230342035313220432031393820353132203139322035303620313836203530362043203138302035303620313734203531322031363820353132204320313632203531322031353620353036203135302035303620432031343420353036203133382035313220313332203531322043203132362035313220313230203530362031313420353036204320313038203530362031303220353132203936203531322043203930203531322038342035303620373820353036204320373220353036203636203531322036302035313220432035342035313220343820353036203432203530362043203336203530362033302035313220323020353132204320313020353132203020353032203020343932204320302034383620362034383020362034373420432036203436382030203436322030203435362043203020343530203620343434203620343338204320362034333220302034323620302034323020432030203431342036203430382036203430322043203620333936203020333930203020333834204320302033373820362033373220362033363620432036203336302030203335342030203334382043203020333432203620333336203620333330204320362033323420302033313820302033313220432030203330362036203330302036203239342043203620323838203020323832203020323736204320302032373020362032363420362032353820432036203235322030203234362030203234302043203020323334203620323238203620323232204320362032313620302032313020302032303420432030203139382036203139322036203138362043203620313830203020313734203020313638204320302031363220362031353620362031353020432036203134342030203133382030203133322043203020313236203620313230203620313134204320362031303820302031303220302039362043203020393020362038342036203738204320362037322030203636203020363020432030203534203620343820362034322043203620333620302033302030203230205a222f3e3c706f6c79676f6e20706f696e74733d223132382c33342e33203231362c33342e33203231362c30203239362c30203239362c33342e33203338342c33342e33203432382c3131302e35203435372e372c39332e34203439372e372c3136322e36203436382c3137392e38203531322c323536203436382c3333322e32203439372e372c3334392e34203435372e372c3431382e36203432382c3430312e35203338342c3437372e37203239362c3437372e37203239362c353132203231362c353132203231362c3437372e37203132382c3437372e372038342c3430312e352035342e332c3431382e362031342e332c3334392e342034342c3333322e3220302c3235362034342c3137392e382031342e332c3136322e362035342e332c39332e342038342c3131302e35222f3e3c7265637420783d22302220793d2230222072783d223432222072793d223432222077696474683d2235313222206865696768743d22353132222f3e3c7061746820643d224d203020363420432030203332203332203020363420302043203132382030203139322031362032353620313620432033323020313620333830203020343438203020432034383020302035313220333220353132203634204320353132203132382034393620313932203439362032353620432034393620333230203531322033383020353132203434382043203531322034383020343830203531322034343820353132204320333834203531322033323020343936203235362034393620432031393220343936203133322035313220363420353132204320333220353132203020343830203020343438204320302033383420313620333230203136203235362043203136203139322030203133322030203634205a222f3e3c706f6c79676f6e20706f696e74733d223235362c30203439392e352c3137362e39203430362e352c3436332e31203130352e352c3436332e312031322e352c3137362e39222f3e3c7061746820643d224d2030203020412034322034322030203020302035312e3220302041203432203432203020302030203130322e3420302041203432203432203020302030203135332e3620302041203432203432203020302030203230342e38203020412034322034322030203020302032353620302041203432203432203020302030203330372e3220302041203432203432203020302030203335382e3420302041203432203432203020302030203430392e3620302041203432203432203020302030203436302e38203020412034322034322030203020302035313220302041203432203432203020302030203531322035312e32204120343220343220302030203020353132203130322e34204120343220343220302030203020353132203135332e36204120343220343220302030203020353132203230342e3820412034322034322030203020302035313220323536204120343220343220302030203020353132203330372e32204120343220343220302030203020353132203335382e34204120343220343220302030203020353132203430392e36204120343220343220302030203020353132203436302e38204120343220343220302030203020353132203531322041203432203432203020302030203436302e38203531322041203432203432203020302030203430392e36203531322041203432203432203020302030203335382e34203531322041203432203432203020302030203330372e3220353132204120343220343220302030203020323536203531322041203432203432203020302030203230342e38203531322041203432203432203020302030203135332e36203531322041203432203432203020302030203130322e342035313220412034322034322030203020302035312e3220353132204120343220343220302030203020302035313220412034322034322030203020302030203436302e3820412034322034322030203020302030203430392e3620412034322034322030203020302030203335382e3420412034322034322030203020302030203330372e32204120343220343220302030203020302032353620412034322034322030203020302030203230342e3820412034322034322030203020302030203135332e3620412034322034322030203020302030203130322e34204120343220343220302030203020302035312e32204120343220343220302030203020302030205a222f3e",
  "devdoc": {
    "kind": "dev",
    "methods": {},
    "version": 1
  },
  "userdoc": {
    "kind": "user",
    "methods": {},
    "version": 1
  },
  "storageLayout": {
    "storage": [
      {
        "astId": 2836,
        "contract": "contracts/MondrianFrames.sol:MondrianFrames",
        "label": "frameNames",
        "offset": 0,
        "slot": "0",
        "type": "t_array(t_string_storage)32_storage"
      },
      {
        "astId": 2873,
        "contract": "contracts/MondrianFrames.sol:MondrianFrames",
        "label": "frameRarityMillibit",
        "offset": 0,
        "slot": "32",
        "type": "t_array(t_uint256)32_storage"
      },
      {
        "astId": 2910,
        "contract": "contracts/MondrianFrames.sol:MondrianFrames",
        "label": "frames",
        "offset": 0,
        "slot": "64",
        "type": "t_array(t_string_storage)32_storage"
      }
    ],
    "types": {
      "t_array(t_string_storage)32_storage": {
        "base": "t_string_storage",
        "encoding": "inplace",
        "label": "string[32]",
        "numberOfBytes": "1024"
      },
      "t_array(t_uint256)32_storage": {
        "base": "t_uint256",
        "encoding": "inplace",
        "label": "uint256[32]",
        "numberOfBytes": "1024"
      },
      "t_string_storage": {
        "encoding": "bytes",
        "label": "string",
        "numberOfBytes": "32"
      },
      "t_uint256": {
        "encoding": "inplace",
        "label": "uint256",
        "numberOfBytes": "32"
      }
    }
  }
}