{
  "address": "0xb2A7ABd7b216DeDB6B09ceA0eb4ac7b04FF2748a",
  "abi": [
    {
      "inputs": [
        {
          "internalType": "uint256",
          "name": "index",
          "type": "uint256"
        }
      ],
      "name": "getShape",
      "outputs": [
        {
          "internalType": "string",
          "name": "",
          "type": "string"
        }
      ],
      "stateMutability": "view",
      "type": "function"
    },
    {
      "inputs": [
        {
          "internalType": "uint256",
          "name": "index",
          "type": "uint256"
        }
      ],
      "name": "getShapeName",
      "outputs": [
        {
          "internalType": "string",
          "name": "",
          "type": "string"
        }
      ],
      "stateMutability": "view",
      "type": "function"
    },
    {
      "inputs": [
        {
          "internalType": "uint256",
          "name": "index",
          "type": "uint256"
        }
      ],
      "name": "getShapeRarityMillibit",
      "outputs": [
        {
          "internalType": "uint256",
          "name": "",
          "type": "uint256"
        }
      ],
      "stateMutability": "view",
      "type": "function"
    }
  ],
  "transactionHash": "0xf3aebb4b6191b230a0b3af26380d303cf37be7ac8e901c3a24cc5e526d523a19",
  "args": [],
  "numDeployments": 1,
  "solcInputHash": "47136f287978144e6dfe08e24c5e06c6",
  "bytecode": "0x6004610480818152634e6f6e6560e01b6104a081905260809182526104c08381526104e082905260a05261050083815261052082905260c05261054083815261056082905260e0526105808381526105a0919091526101005260066105c081815265436972636c6560d01b6105e05261012052600c6106008181526b466f757220436972636c657360a01b61062052610140526106408181526b536d616c6c20436972636c6560a01b61066052610160526106808181526b4c6172676520436972636c6560a01b6106a0526101805260086106c081815267457468657265756d60c01b6106e0526101a0526005610700818152641219585c9d60da1b610720526101c0526107408681526329ba30b960e11b610760526101e0526107808481526521b637bb32b960d11b6107a052610200526107c095865263526f736560e01b6107e052610220959095526108008581526443726f737360d81b61082052610240526108408381526514dc1a5c985b60d21b6108605261026052600d6108808181526c14dd185c881bd98811185d9a59609a1b6108a052610280526108c082815267547269616e676c6560c01b6108e0526102a0526109009081526c21b932b9b1b2b73a1026b7b7b760991b610920526102c05261094085815264446169737960d81b610960526102e05261098083815265233637bbb2b960d11b6109a05261030052600f6109c08181526e526573697a696e6720436972636c6560881b6109e05261032052610a009081526e5368696674696e672053717561726560881b610a2052610340526007610a40908152662bb0ba31b432b960c91b610a6052610360526003610a808181526229bab760e91b610aa05261038052610ac08281526729b43ab934b5b2b760c11b610ae0526103a0526009610b009081526810d85c9d1dda19595b60ba1b610b20526103c052610b4093845265149bd8dad95d60d21b610b60526103e093909352610b8094855264436c6f636b60d81b610ba05261040094909452610bc093845267414820736861706560c01b610be05261042093909352610c009081526210d85d60ea1b610c205261044052610c80604052610c409182526b5261726520566974616c696b60a01b610c6052610460919091526200034d90600090602062000895565b506040805161040081018252600080825260208083018290529282018190526060820181905260808201526109ad60a08201526109e460c0820152610a1e60e0820152610a5a610100820152610a99610120820152610ada610140820152610b1f610160820152610b67610180820152610bb36101a0820152610c036101c0820152610c586101e0820152610cb2610200820152610d13610220820152610d7a610240820152610de9610260820152610e61610280820152610ee46102a0820152610f756102c08201526110156102e08201526110ca6103008201526111986103208201526112896103408201526113ab6103608201526115156103808201526116fb6103a08201526119dc6103c082015261200d6103e082015262000475919081620008e5565b50604051806104000160405280604051806020016040528060008152508152602001604051806020016040528060008152508152602001604051806020016040528060008152508152602001604051806020016040528060008152508152602001604051806020016040528060008152508152602001604051806060016040528060228152602001620033a06022913981526020016040518060c0016040528060888152602001620045f060889139815260200160405180606001604052806022815260200162004678602291398152602001604051806060016040528060238152602001620058dd602391398152602001604051806101e001604052806101b2815260200162002cae6101b291398152602001604051806102c00160405280610296815260200162005d90610296913981526020016040518061020001604052806101c88152602001620031d86101c891398152602001604051806101a0016040528061016181526020016200602661016191398152602001604051806102a00160405280610268815260200162003db361026891398152602001604051806102a0016040528061026b8152602001620033c261026b9139815260200160405180610640016040528061061881526020016200469a6106189139815260200160405180610260016040528061023b815260200162004cb261023b91398152602001604051806101a0016040528061017a815260200162000d8d61017a9139815260200160405180610120016040528060fb815260200162002e6060fb91398152602001604051806104c0016040528061049081526020016200590061049091398152602001604051806102e001604052806102b1815260200162004eed6102b191398152602001604051806102a0016040528061026181526020016200666561026191398152602001604051806102a0016040528061027d815260200162002f5b61027d9139815260200160405180610340016040528061031681526020016200362d6103169139815260200160405180610380016040528061035d81526020016200558061035d913981526020016040518061042001604052806103e281526020016200519e6103e2913981526020016040518061050001604052806104de8152602001620061876104de91398152602001604051806105a0016040528061057c8152602001620068c661057c91398152602001604051806104a0016040528061047081526020016200394361047091398152602001604051806101600160405280610138815260200162006e42610138913981526020016040518061060001604052806105d581526020016200401b6105d59139815260200160405180611de00160405280611da7815260200162000f07611da7913990526200088090604090602062000895565b503480156200088e57600080fd5b5062000b15565b8260208101928215620008d3579160200282015b82811115620008d35782518290620008c2908262000a49565b5091602001919060010190620008a9565b50620008e19291506200092a565b5090565b82602081019282156200091c579160200282015b828111156200091c578251829061ffff16905591602001919060010190620008f9565b50620008e19291506200094b565b80821115620008e157600062000941828262000962565b506001016200092a565b5b80821115620008e157600081556001016200094c565b5080546200097090620009ba565b6000825580601f1062000981575050565b601f016020900490600052602060002090810190620009a191906200094b565b50565b634e487b7160e01b600052604160045260246000fd5b600181811c90821680620009cf57607f821691505b602082108103620009f057634e487b7160e01b600052602260045260246000fd5b50919050565b601f82111562000a4457600081815260208120601f850160051c8101602086101562000a1f5750805b601f850160051c820191505b8181101562000a405782815560010162000a2b565b5050505b505050565b81516001600160401b0381111562000a655762000a65620009a4565b62000a7d8162000a768454620009ba565b84620009f6565b602080601f83116001811462000ab5576000841562000a9c5750858301515b600019600386901b1c1916600185901b17855562000a40565b600085815260208120601f198616915b8281101562000ae65788860151825594840194600190910190840162000ac5565b508582101562000b055787850151600019600388901b60f8161c191681555b5050505050600190811b01905550565b6102688062000b256000396000f3fe608060405234801561001057600080fd5b50600436106100415760003560e01c806322ced72114610046578063442babdf1461006f578063b5f4d83914610090575b600080fd5b61005961005436600461017b565b6100a3565b6040516100669190610194565b60405180910390f35b61008261007d36600461017b565b610149565b604051908152602001610066565b61005961009e36600461017b565b610166565b6060604082602081106100b8576100b86101e2565b0180546100c4906101f8565b80601f01602080910402602001604051908101604052809291908181526020018280546100f0906101f8565b801561013d5780601f106101125761010080835404028352916020019161013d565b820191906000526020600020905b81548152906001019060200180831161012057829003601f168201915b50505050509050919050565b60006020826020811061015e5761015e6101e2565b015492915050565b6060600082602081106100b8576100b86101e2565b60006020828403121561018d57600080fd5b5035919050565b600060208083528351808285015260005b818110156101c1578581018301518582016040015282016101a5565b506000604082860101526040601f19601f8301168501019250505092915050565b634e487b7160e01b600052603260045260246000fd5b600181811c9082168061020c57607f821691505b60208210810361022c57634e487b7160e01b600052602260045260246000fd5b5091905056fea264697066735822122068c391dcf92edcbc40bcdb57d35f634a2eb7f534037f39056612e7984aa1e96164736f6c634300081400333c673e3c706f6c79676f6e20706f696e74733d223235362c313238203336372c333230203134352c333230222f3e3c616e696d6174655472616e73666f726d20747970653d22726f7461746522206475723d22343573222076616c7565733d223020323536203235363b3020323536203235363b3020323536203235363b3020323536203235363b3520323536203235363b313520323536203235363b333020323536203235363b353020323536203235363b373520323536203235363b31303520323536203235363b31343020323536203235363b31383020323536203235363b32313520323536203235363b32333220323536203235363b32343020323536203235363b32343020323536203235363b313230203235362032353622206174747269627574654e616d653d227472616e73666f726d2220617474726962757465547970653d22584d4c2220726570656174436f756e743d22696e646566696e697465222061646469746976653d2273756d222f3e3c2f673e3c67207472616e73666f726d3d227472616e736c617465283235362032353629223e3c673e3c67207472616e73666f726d3d227472616e736c617465282d3135302c3137372e3529207363616c6528302e3130303030302c2d302e31303030303029222066696c6c3d222330303030303022207374726f6b653d226e6f6e65223e203c7061746820643d224d31333335203333363520632d3333202d37202d3835202d3233202d313135202d3335202d3631202d3234202d313830202d313038202d323033202d313433202d38202d3133202d3337202d3332202d3634202d3432202d313132202d3432202d323531202d313537202d333732202d333039202d3736202d3936202d313236202d313836202d313539202d323834202d3234202d3731202d3236202d3931202d3236202d3235322030202d3134372033202d313839203232202d323633203132202d3438203239202d313031203337202d313137203230202d3430203230202d3430202d3234202d3430202d37372030202d313338202d3637202d313438202d313634202d3230202d31393320313536202d35373320323939202d363437203435202d323320313131202d323520313238202d34203231203235203330203137203330202d32392030202d3635203336202d323330203631202d323834203132202d3236203537202d3831203938202d313232203636202d3636203934202d383520323130202d313433203733202d333720313430202d363720313437202d363720372030203238202d3133203436202d323820313133202d393820333333202d31363720353333202d313637203130352030203132352033203136312032322038352034352031353320313338203137302032333320342031392032322035332034302037352038322031303120313531203236362031373420343135206c313320383520363720363720633131362031313620313736203237362031363820343531202d3520313139202d323420313538202d383620313731202d3431203130202d3432203131202d3432203439203020323220313120363420323520393320363920313436203130302033353320393120363134202d3820323632202d333820333439202d31363820343835202d31353220313631202d33313720323435202d36323820333138202d313639203430202d333737203436202d343638203132202d3335202d3133202d3239202d3134203833202d313220323032203320333934202d323820353935202d393820313733202d363120323635202d31313820333830202d323336203836202d383820313334202d31373220313534202d323732203230202d3934203231202d3338342032202d353138202d3135202d313039202d3532202d323339202d3637202d323339202d31322030202d3131203138203120363020323220373220313220323936202d313820343133202d3130203339202d3430203932202d3438203834202d32202d322035202d3438203136202d313033203237202d313237203239202d3332372035202d343130202d3130202d3333202d3133202d3638202d39202d38372035202d32372034202d3239202d3132202d3232202d3932203338202d323237203630202d333130203439202d3630202d37202d3730202d3137202d3736202d3734202d32202d32362031202d3334203131202d33322036382031352031323120323220313633203232203534203020313937202d323720323133202d3430203135202d3133202d31202d333938202d3231202d353030202d39202d3437202d3239202d313132202d3435202d313435202d3135202d3334202d3335202d313034202d3435202d313630202d3239202d313730202d3834202d333036202d313638202d343135202d3236202d3334202d3435202d3731202d3439202d3935202d39202d3533202d3534202d313233202d313034202d313631202d3633202d3438202d313433202d3630202d323633202d3339202d313738203330202d333331203836202d33393520313434202d3136203136202d3436203334202d3635203431202d3536203232202d313930203930202d32353020313237202d31383220313135202d32343420323630202d32363620363233202d36203838202d3920313038202d3136203835202d36202d3233202d3135202d313034202d3138202d3137352030202d3131202d3539202d3430202d3832202d3430202d3135302030202d33383520353034202d33313420363734203230203438203631203736203131302037362034362030203731202d313420313333202d3733203438202d3436203637202d34352032382031202d3239203334202d3331203432202d3131203432203437203020313235202d31323120313437202d3232382037202d3334203138202d3631203234202d353920313520352034342032313220353420333939203920313533203820313733202d313020323335202d3232203739202d323620323332202d36203330342037203239203238203635203536203935203234203237203632203736203834203130382034372037302031333720323537203133372032383620302031312036203230203133203230203136202d31203832202d313439203937202d323231203132202d35352039202d313931202d36202d323531202d39202d33392039202d33352032392037203439203130342038312033333820353720343235202d3131203338202d3134203432202d3231203235202d34202d3131202d38202d3533202d38202d3932202d31202d3430202d34202d3733202d39202d3733202d342030202d3138203238202d3332203631202d3333203835202d373420313339202d31303420313339202d32392030202d3431202d3137202d3934202d313337202d3232202d3531202d3532202d313037202d3635202d313235202d3133202d3138202d3237202d3430202d3330202d3438202d33202d38202d3332202d3437202d3634202d3835202d3333202d3339202d3636202d3838202d3734202d313130202d3231202d3539202d3138202d3235312035202d333531203136202d3733203137202d39372037202d323335202d3131202d313538202d3137202d313939202d3331202d313939202d352030202d31312038202d3135203138202d33203131202d3235203431202d3439203637202d3339203432202d3530203438202d3933203532202d37382038202d3930203232202d31323320313535202d393920343031202d3335203634392032343020393330203935203936203137352031353620323437203138332032392031312037342034322031313320373920353720353420313139203933203138352031313720313120342034302031362036352032382032352031312038302032332031323320323720343220342037372031312037372031352030203133202d3131362039202d313835202d367a206d31323035202d3136373520633132202d36203233202d3330203330202d3634203231202d313032202d3138202d323831202d3836202d333931202d3136202d3236202d3335202d3539202d3433202d3734202d3234202d3434202d3235202d342030203437203238203630203438203136352034382032363420312035392035203831203139203934203136203137203137203136203232202d31322035202d32342037202d3236203133202d313120392032352039203439202d32203636202d38203132202d3132203132202d32342032202d3230202d3136202d3235202d35202d313920343720342034342031312034392034322033327a222f3e203c7061746820643d224d313237392032393736206336202d37203235202d3430203431202d3733203532202d31303520313936202d32353920333332202d333535203537202d343120323335202d31333820323533202d3133382031352030202d32203230202d3532203538202d3330203235202d3734203735202d31303720313236202d3331203437202d3539203836202d3631203836202d3220302033202d3231203131202d3437203239202d3930203238202d3837203133202d3738202d3937203538202d32333920313934202d33313320333030202d3534203738202d31303520313335202d31313920313335202d352030202d34202d362032202d31347a222f3e203c7061746820643d224d313732302032363932206330202d3136203638202d31303220313134202d313435203933202d383520323237202d31353720333631202d313933203738202d3231203738202d3231203730203339202d3130203830202d333220313530202d353620313735202d3131203133202d3233203232202d3235203230202d32202d332035202d3336203136202d3734203232202d3735203235202d313130203131202d313138202d3132202d38202d313137203238202d313731203538202d3235203134202d3534203330202d3635203335202d3332203135202d3835203537202d31353020313139202d3833203739202d313035203937202d3130352038347a222f3e203c7061746820643d224d32323733203235343320633834202d3835203934202d393920313037202d313435203136202d3537203330202d34362033302032322030203439202d33203632202d3137203637202d31302033202d3331203231202d3438203338202d3433203436202d3939203835202d313231203835202d313320302030202d3138203439202d36377a222f3e203c673e3c7061746820643d224d31333134203139373020632d3636202d3134202d313335202d3531202d313836202d313030202d3636202d3634202d3635202d39302032202d3435203638203436203134372036372032363420373320313033203520323431202d313620323938202d3434203337202d3139203338202d31382033382031362030203431202d3234203736202d3633203930202d3430203135202d323938203232202d3335332031307a222f3e3c616e696d6174655472616e73666f726d20747970653d227472616e736c61746522206475723d22313373222076616c7565733d223020303b3020303b3020303b3020303b3020303b3020303b3020303b3020303b3020303b3020303b3020303b3020303b3020303b3020303b3020303b3020303b3020303b3020303b3020303b3020303b3020303b3020303b3020303b3020303b3020303b3020303b3020303b3020303b3020303b3020303b3020303b3020303b3020303b3020303b3020303b3020303b3020303b3020303b3020303b3020303b3020303b3020303b3020303b3020303b3020303b3020303b3020303b3020303b3020303b3020303b3020303b302032322e353b302035303b302033303b302031353b3020303b3020303b3020303b3020303b3020303b3020303b3020303b3020303b3020303b3020303b3020303b3020303b3020303b3020303b3020303b3020303b3020303b3020303b3020303b3020303b3020303b3020303b3020303b3020303b3020303b3020303b3020303b3020303b3020303b3020303b3020303b302036303b3020303b302036303b30203022206174747269627574654e616d653d227472616e73666f726d2220617474726962757465547970653d22584d4c2220726570656174436f756e743d22696e646566696e697465222061646469746976653d2273756d222f3e3c2f673e203c7061746820643d224d31333732203138343920632d3536202d39202d313336202d3436202d313839202d3836202d3337202d3237202d3436202d3533202d3130202d3331203239203139203730203136203933202d37203332202d3331203836202d343720313934202d3536203538202d3520313230202d313120313338202d3135203237202d35203332202d33203332203132202d31203339202d363520313238202d31303520313439202d3532203235202d3233203333203432203131203538202d3230203837202d3231203533202d31202d31342038202d3530203137202d3830203230202d33302033202d36382037202d38352039202d31362032202d35342030202d3833202d357a206d3236202d3630206c2d3233202d3330203233202d3339203232202d3339202d343720313620632d3534203139202d313133203531202d31313320363320302036203839203439203133302036332032372038203330202d342038202d33347a206d3432202d333420633130202d3237203239202d3332203437202d31342031332031332033332034203333202d31362030202d3138202d3431202d3239202d3733202d3231202d32362036202d3533203438202d3433203635203132203138203236203133203336202d31347a206d313230202d3130206330202d31342038202d3239203230202d3335203235202d3134203238202d34352033202d3335202d31302034202d3238203130202d3431203133202d31372033202d32312039202d31362032312033203920392032362031312033392037203330203233203238203233202d337a222f3e203c7061746820643d224d333834203137373520632d3338202d3538202d3133202d323530203439202d333730203232202d3433203737202d313130203737202d393320302033202d3138203434202d3430203930202d363920313436202d393220333433202d343320333632203231203820313130202d383620313537202d313637203338202d3636203633202d3838203531202d3434202d3234203838202d383420313739202d31343320323230202d3439203335202d3836203335202d31303820327a222f3e203c7061746820643d224d32303935203137373820632d3431202d3131202d3839202d3338202d3638202d333820372030203237203620343520313420313820382034392031392036382032342034372031332036203133202d343520307a222f3e203c7061746820643d224d32323338203137373120633239202d3130203634202d3239203738202d3432203234202d3232203236202d3233203233202d34202d35203235202d3832203635202d313234203635202d3236202d31202d3232202d33203233202d31397a222f3e203c7061746820643d224d32313039203137343720632d3532202d3234202d313137202d3936202d313035202d3131352035202d3920323236202d313520323236202d3620302033202d3131203135202d3234203237202d3238203235202d3337203538202d313920363420372033203137202d37203233202d32322037202d3138203135202d3235203235202d32312038203320323220392033302031322032302038203139202d3135202d32202d3338202d39202d3130202d3132202d3138202d36202d3138203136203020343120333220343820363220362032312032203330202d3139203433202d3135203130202d3436203230202d3730203232206c2d34352035202d37202d333720632d34202d3231202d32202d34372035202d3631206c3131202d3234202d3735203020632d34312030202d37352034202d373520392030203133203932203931203130382039312036203020313220352031322031302030203132202d38203132202d3431202d337a222f3e203c7061746820643d224d313733302031373434206330202d332037202d3139203137202d3334203136202d3238203136202d3239202d3231202d3830202d3538202d3830202d3332202d37362032392034203234203332203334203736203136203736202d352030202d31312039202d3134203230202d35203138202d3237203239202d32372031347a222f3e203c7061746820643d224d31393534203136393420632d3236202d3333202d3237202d3338202d3135202d3732203233202d3634203632202d313432203732202d3134322031342030203131203133202d3231203833202d3337203831202d3337203937202d3420313336203139203233203232203331203130203331202d382030202d3237202d3136202d3432202d33367a222f3e203c7061746820643d224d353338203134383320632d3432202d3639202d3138202d313831203434202d323032203339202d313420313335202d313420313433202d3120342036202d38203335202d3235203634202d3138203333202d3333203737202d333820313133202d38203536202d38203537202d3232203333202d37202d3134202d3134202d3436202d3134202d37322030202d33382036202d3534203237202d3736203135202d3135203237202d3332203237202d33362030202d3138202d38352033202d313032203234202d3232203237202d323420313134202d33203135302031382033322031382034302031203430202d382030202d3235202d3137202d3338202d33377a222f3e203c7061746820643d224d323038302031323634206330202d33203130202d3232203232202d3433203134202d3235203139202d3435203135202d3633202d36202d3232202d3132202d3236202d3432202d3235202d32342031202d3439202d39202d3830202d3331202d3235202d3138202d3538202d3332202d3732202d3332202d32362030202d3236202d31202d3130202d3137203137202d3137203139202d3137203435202d312035332033342031313020353820313235203532203232202d382035372033352035372036392030203332202d3237203834202d3437203931202d372033202d31332033202d313320307a222f3e203c7061746820643d224d31363137203132353320632d34202d33202d37202d3330202d37202d35392030202d34362034202d3537203334202d3838203138202d3230203431202d3336203530202d33362032352030203139203138202d3132203334202d3430203231202d3536203536202d34392031313120362034312030203535202d31362033387a222f3e203c7061746820643d224d31373130203131353020632d3236202d3136202d31202d3235203838202d3331203438202d33203935202d3920313035202d3133203334202d3136203138203231202d3137203338202d3337203138202d313531203232202d31373620367a222f3e203c7061746820643d224d313637352039313020632d3436202d3133202d313738202d3334202d313935202d3331202d33342038202d34352035202d3435202d392030202d39203135202d3137203434202d3232203333202d36203536202d3139203935202d3536203838202d383420313433202d31303220333036202d3130322031323720302031363220313220313936203637203130203135203239203430203432203535206c3235203238202d323720323520632d3530203436202d3834203538202d313435203530202d3735202d39202d313133202d39202d313936202d32202d33382033202d38332032202d313030202d337a206d323130202d323120633137202d31203439203220373220362034372038203933202d3520313330202d3338203330202d3237203139202d3430202d3236202d3332202d32302033202d313430203130202d323638203134202d3132372035202d323430203134202d323530203230202d31352038202d313020313120323720313220323520312037342037203131302031342033362037203930203131203132302039203330202d33203639202d35203835202d357a206d2d3431202d37392063313230202d3520323233202d313320323238202d3136203137202d3131202d3333202d3533202d3832202d3639202d3339202d3133202d3635202d3134202d313636202d35202d313235203131202d313632203234202d323330203738202d3433203334202d3433203433202d31203332203137202d3520313330202d313420323531202d32307a222f3e3c2f673e3c616e696d6174655472616e73666f726d20747970653d227363616c6522206475723d22313173222076616c7565733d223120313b3120313b3120313b3120313b3120313b312e303620312e30363b312e303320312e30333b312e303120312e30313b3120313b3120313b3120313b3120313b3120313b3120313b3120313b31203122206174747269627574654e616d653d227472616e73666f726d2220617474726962757465547970653d22584d4c2220726570656174436f756e743d22696e646566696e697465222061646469746976653d2273756d222f3e3c616e696d6174655472616e73666f726d20747970653d22726f7461746522206475723d22323373222076616c7565733d22303b303b303b303b303b303b353b2d353b2d312e353b303b303b303b303b303b303b2d33363022206174747269627574654e616d653d227472616e73666f726d2220617474726962757465547970653d22584d4c2220726570656174436f756e743d22696e646566696e697465222061646469746976653d2273756d222f3e3c2f673e3c2f673e3c673e3c706f6c79676f6e20706f696e74733d223134342c323430203235362c323838203336382c323430203235362c3634222f3e3c616e696d6174655472616e73666f726d20747970653d227472616e736c61746522206475723d22342e3373222076616c7565733d223020303b3020303b302031343b30203022206174747269627574654e616d653d227472616e73666f726d2220617474726962757465547970653d22584d4c2220726570656174436f756e743d22696e646566696e697465222061646469746976653d2273756d222f3e3c2f673e3c673e3c706f6c79676f6e20706f696e74733d223134342c323732203235362c343438203336382c323732203235362c333230222f3e3c616e696d6174655472616e73666f726d20747970653d227472616e736c61746522206475723d22362e3773222076616c7565733d223020303b3020303b30202d31343b30203022206174747269627574654e616d653d227472616e73666f726d2220617474726962757465547970653d22584d4c2220726570656174436f756e743d22696e646566696e697465222061646469746976653d2273756d222f3e3c2f673e3c673e3c7061746820643d224d203136352e35203136352e3520412031323820313238203020302030203334362e35203334362e3520412031363020313630203020302031203136352e35203136352e35205a222f3e3c616e696d6174655472616e73666f726d20747970653d22726f7461746522206475723d2235393973222076616c7565733d223020323536203235363b333630203235362032353622206174747269627574654e616d653d227472616e73666f726d2220617474726962757465547970653d22584d4c2220726570656174436f756e743d22696e646566696e697465222061646469746976653d2273756d222f3e3c2f673e3c67207472616e73666f726d3d227472616e736c617465283235362032353629223e3c7265637420783d222d39302220793d222d3930222077696474683d2231383022206865696768743d22313830222f3e3c616e696d6174655472616e73666f726d20747970653d227363616c6522206475723d22323373222076616c7565733d223120313b3120313b3120313b312e373520313b312e373520313b302e3520313b302e3520313b31203122206174747269627574654e616d653d227472616e73666f726d2220617474726962757465547970653d22584d4c2220726570656174436f756e743d22696e646566696e697465222061646469746976653d2273756d222f3e3c616e696d6174655472616e73666f726d20747970653d227363616c6522206475723d22333773222076616c7565733d223120313b3120313b3120313b3120312e37353b3120312e37353b3120302e353b3120302e353b31203122206174747269627574654e616d653d227472616e73666f726d2220617474726962757465547970653d22584d4c2220726570656174436f756e743d22696e646566696e697465222061646469746976653d2273756d222f3e3c616e696d6174655472616e73666f726d20747970653d22726f7461746522206475723d22393773222076616c7565733d22303b303b34353b34353b36303b36303b33303b33303b39303b39303b3133353b3133353b3138303b3138303b3133353b3135303b393022206174747269627574654e616d653d227472616e73666f726d2220617474726962757465547970653d22584d4c2220726570656174436f756e743d22696e646566696e697465222061646469746976653d2273756d222f3e3c2f673e3c67207472616e73666f726d3d227472616e736c617465283235362c2032353629223e3c706f6c79676f6e20706f696e74733d22302c2d3136362e372033362e372c2d35302e37203135382e352c2d35312e352035392e352c31392e322039382c3133342e3820302e312c36322e35202d39382c3133342e38202d35392e342c31392e34202d3135382e352c2d35312e35202d33362e392c2d35302e35222f3e3c616e696d6174655472616e73666f726d20747970653d22726f7461746522206475723d22373173222076616c7565733d22303b303b313b2d313b303b303b303b303b303b303b303b303b303b2d323b303b302e353b323b323b31303b33303b33303b33353b33363b33363b33363b33383b383b303b303b303b303b303b303b303b303b303b303b2d33313b2d33363b2d33363b2d34353b2d34353b2d36303b2d36303b2d36363b2d36363b2d37303b2d37323b2d37323b2d37323b2d37303b2d37313b2d37313b2d373222206174747269627574654e616d653d227472616e73666f726d2220617474726962757465547970653d22584d4c2220726570656174436f756e743d22696e646566696e697465222061646469746976653d2273756d222f3e3c2f673e3c636972636c652063783d22323536222063793d223235362220723d223936222f3e3c673e3c706f6c79676f6e20706f696e74733d223230382c313132203330342c313132203330342c323038203430302c323038203430302c333034203330342c333034203330342c343030203230382c343030203230382c333034203131322c333034203131322c323038203230382c323038222f3e3c616e696d6174655472616e73666f726d20747970653d22726f7461746522206475723d22343773222076616c7565733d223020323536203235363b3020323536203235363b3020323536203235363b3020323536203235363b3220323536203235363b3020323536203235363b3020323536203235363b3020323536203235363b3020323536203235363b2d3220323536203235363b3020323536203235363b3020323536203235363b3020323536203235363b3020323536203235363b3020323536203235363b3020323536203235363b3020323536203235363b3020323536203235363b3020323536203235363b3020323536203235363b3020323536203235363b2d343520323536203235363b2d343520323536203235363b2d343520323536203235363b2d343520323536203235363b2d343520323536203235363b343520323536203235363b343520323536203235363b343520323536203235363b343520323536203235363b343520323536203235363b343520323536203235363b343520323536203235363b3930203235362032353622206174747269627574654e616d653d227472616e73666f726d2220617474726962757465547970653d22584d4c2220726570656174436f756e743d22696e646566696e697465222061646469746976653d2273756d222f3e3c2f673e3c67207472616e73666f726d3d227472616e736c617465283235362032353629223e3c7061746820643d224d203235362031323820412031323820313238203120312030203334362e35203136352e352041203936203936203020302031203235362031323822207472616e73666f726d3d227472616e736c617465282d323536202d32353629222f3e3c616e696d6174655472616e73666f726d20747970653d22726f7461746522206475723d22353373222076616c7565733d22303b303b303b303b303b303b303b303b303b303b303b39303b39303b39303b39303b39303b3138303b3138303b3138303b3138303b3138303b3138303b33363022206174747269627574654e616d653d227472616e73666f726d2220617474726962757465547970653d22584d4c2220726570656174436f756e743d22696e646566696e697465222061646469746976653d2273756d222f3e3c616e696d6174655472616e73666f726d20747970653d22726f7461746522206475723d22343173222076616c7565733d22303b303b36303b36303b36303b36303b36303b3132303b3132303b3132303b3132303b3234303b3234303b3234303b3234303b3234303b3138303b3138303b3138303b3138303b3330303b3330303b3330303b33363022206174747269627574654e616d653d227472616e73666f726d2220617474726962757465547970653d22584d4c2220726570656174436f756e743d22696e646566696e697465222061646469746976653d2273756d222f3e3c616e696d6174655472616e73666f726d20747970653d22726f7461746522206475723d22333173222076616c7565733d22303b303b303b303b303b303b303b303b2d37323b2d37323b2d37323b2d37323b2d3134343b2d3134343b2d3134343b2d3134343b2d3231363b2d3231363b2d3231363b2d3238383b2d3238383b2d33363022206174747269627574654e616d653d227472616e73666f726d2220617474726962757465547970653d22584d4c2220726570656174436f756e743d22696e646566696e697465222061646469746976653d2273756d222f3e3c2f673e3c75736520687265663d2223636c6f636b436972636c65734c61726765222f3e3c75736520687265663d2223636c6f636b436972636c6573536d616c6c22207472616e73666f726d3d22726f746174652833302c203235362c2032353629222f3e3c75736520687265663d2223636c6f636b436972636c6573536d616c6c22207472616e73666f726d3d22726f746174652836302c203235362c2032353629222f3e3c673e3c7061746820643d224d203235362031303020412031303030203130303020302030203120323632203138302041203136203136203020302031203236312032313020412031303920313039203020302030203237302032353620412031342031342030203020312032343220323536204120313039203130392030203020302032353120323130204120313620313620302030203120323530203138302041203130303020313030302030203020312032353620313030205a222f3e3c616e696d6174655472616e73666f726d20747970653d22726f7461746522206475723d22343332303073222076616c7565733d223020323536203235363b20333630203235362032353622206174747269627574654e616d653d227472616e73666f726d2220617474726962757465547970653d22584d4c2220726570656174436f756e743d22696e646566696e697465222061646469746976653d2273756d222f3e3c2f673e3c673e3c7061746820643d224d203235362036382041203830302038303020302030203120323632203135302041203132203132203020302031203236312031373020412033313520333135203020302030203236362032353620412031302031302030203020312032343620323536204120333135203331352030203020302032353120313730204120313220313220302030203120323530203135302041203830302038303020302030203120323536203638205a222f3e3c616e696d6174655472616e73666f726d20747970653d22726f7461746522206475723d223336303073222076616c7565733d223020323536203235363b20333630203235362032353622206174747269627574654e616d653d227472616e73666f726d2220617474726962757465547970653d22584d4c2220726570656174436f756e743d22696e646566696e697465222061646469746976653d2273756d222f3e3c2f673e3c673e3c7061746820643d224d203235362034382041203234303020323430302030203020302032363220323536204120362036203020302031203235302032353620412032343030203234303020302030203020323536203438205a222f3e3c616e696d6174655472616e73666f726d20747970653d22726f7461746522206475723d22363073222076616c7565733d223020323536203235363b20333630203235362032353622206174747269627574654e616d653d227472616e73666f726d2220617474726962757465547970653d22584d4c2220726570656174436f756e743d22696e646566696e697465222061646469746976653d2273756d222f3e3c2f673e3c67207472616e73666f726d3d227472616e736c617465283235362032353629223e3c7061746820643d224d202d32312e38202d33302043202d313730202d31353020313730202d3135302032312e38202d333020432039302e31202d323038203139352e32203131352e332033352e332031312e352043203232352e372032312e34202d34392e34203232312e3320302033372e3120432034392e34203232312e33202d3232352e372032312e34202d33352e332031312e352043202d3139352e32203131352e33202d39302e31202d323038202d32312e38202d3330205a222f3e3c636972636c6520723d223337222f3e3c616e696d6174655472616e73666f726d20747970653d227363616c6522206475723d223973222076616c7565733d223120313b302e393520302e39353b312e303520312e30353b31203122206174747269627574654e616d653d227472616e73666f726d2220617474726962757465547970653d22584d4c2220726570656174436f756e743d22696e646566696e697465222061646469746976653d2273756d222f3e3c616e696d6174655472616e73666f726d20747970653d22726f7461746522206475723d22313373222076616c7565733d22303b303b303b303b373b31343b32313b32383b33353b33353b33363b33363b33363b33363b33303b33303b34303b35303b36303b36303b36303b37303b37303b373222206174747269627574654e616d653d227472616e73666f726d2220617474726962757465547970653d22584d4c2220726570656174436f756e743d22696e646566696e697465222061646469746976653d2273756d222f3e3c2f673e3c673e3c70617468207472616e73666f726d3d227472616e736c6174652831323035202d373935292220643d224d2d3832372e332c3937392e3563302c302d322e322d31332e312d352e322d31372e31632d332e382d352e312d31362e342d31322e312d31362e342d31322e31632d322e362c332e372c332e362d392e382c372e332d32322e3763302c302d32342e322c332e322d34362e382c32372e3620632d362e342c372d31372e382c33382e362d31372e382c33382e366c2d34342e372c32302e35632d33312e312c31322e392d38322e372c32362e322d38322e372c39372e377633302e35632d322e352d312e372d31352e372d31322e372d31352e352d32392e392063302e312d31332e362c312e392d32372e352c332e362d33392e3963332e312d32322e372c352e352d34372e312d332e372d35372e36632d342e322d342e382d31302e322d372e332d31372e372d372e33632d342e392c302d382e392c342d382e392c382e3963302c342e392c342c382e392c382e392c382e392063322e322c302c332e362c302e342c342e332c312e3263332e382c342e342c312e352c32382e312d302e362c34332e34632d312e372c31322e392d332e372c32372e352d332e372c34322e3263302c31362e322c352e362c33312e342c31352e372c34322e38206331312e352c31322e392c32372e372c31392e372c34362e382c31392e3763302c302c302c302c302c306836322e3568382e396831372e3963342e392c302c382e392d342c382e392d382e39732d342d382e392d382e392d382e396c2d31392e362c306c392e352d33312e332063302d342e352d312d382e382d322e372d31322e36632d372e312d31322e312d31392e392d31392e362d33342d31392e36632d362e322c302d31322c312e342d31372e352c342e316c2d322e392d352e3863362e342d332e322c31332e322d342e382c32302e342d342e38206331362e382c302c33322e332c392e322c34302e332c32346c302c306c302c3063302c302c33332e312c35302e372c33362e342c35372e3963302c302e312c302e312c302e312c302e312c302e3263302e392c322e372c332e312c342e372c352e392c352e3363302e312c302c302e322c302c302e332c302e312063302e352c302e312c302e392c302e332c312e342c302e3368392e3863342e342c302c382e312d332e362c382e312d382e3163302d342e342d332e362d382e312d382e312d382e3168302e3263302c302d32362e362d34372e342d32312e342d36342e32206332332e372d33372e322c33362e352d37322e352c33362e352d37322e3563352e312d31312e362c31382e322d32302e352c32302d32312e3763342d322e372c392e352d362e312c31302d31312e33432d3832322e322c3938362e372d3832362c3938312e372d3832372e332c3937392e357a222f3e3c616e696d6174655472616e73666f726d20747970653d227472616e736c61746522206475723d22313273222076616c7565733d223020303b3020303b3020303b3020303b3020303b3020303b3020303b3020303b3020303b3020303b3020303b3020303b3020303b3020303b3020303b3020303b3020303b3020303b3020303b3020303b3020303b3020303b3020303b3020303b3020303b2d3120303b2d3220303b3020303b3020303b3020303b3020303b3020303b3020303b3020303b3020303b3020303b3020303b3020303b3020303b3020303b3020303b3020303b3020303b3020303b3020303b3020303b2d3120303b3020303b3020303b2d3120303b34202d333b3520303b3220303b3020303b3020303b3020303b2d3220303b3020303b3020303b2d3120303b2d3320303b3330202d33303b343020303b333020303b323120303b313320303b3720303b3420303b3220303b3120303b3020303b22206174747269627574654e616d653d227472616e73666f726d2220617474726962757465547970653d22584d4c2220726570656174436f756e743d22696e646566696e697465222061646469746976653d2273756d222f3e3c2f673e3c636972636c652063783d22313830222063793d223138302220723d223438222f3e3c636972636c652063783d22333332222063793d223138302220723d223438222f3e3c636972636c652063783d22313830222063793d223333322220723d223438222f3e3c636972636c652063783d22333332222063793d223333322220723d223438222f3e3c636972636c652063783d22323536222063793d223235362220723d223634222f3e3c67207472616e73666f726d3d227472616e736c617465283235362c2032353629223e3c7061746820643d224d2030203135302041203134322e35203134322e352030203020302031333520302041203132382e33203132382e332030203020302030202d3132312e352041203131352e34203131352e34203020302030202d3130392e3420302041203130332e39203130332e3920302030203020302039382e3420412039332e352039332e352030203020302038382e36203020412038342e312038342e312030203020302030202d37392e3720412037352e372037352e37203020302030202d37312e37203020412036382e322036382e3220302030203020302036342e3620412036312e332036312e332030203020302035382e31203020412035352e322035352e322030203020302030202d35322e3320412034392e372034392e37203020302030202d34372e31203020412034342e372034342e3720302030203020302034322e3420412034302e322034302e322030203020302033382e31203020412033362e322033362e322030203020302030202d33342e3320412033322e362033322e36203020302030202d33302e39203020412032392e332032392e3320302030203020302032372e3820412032362e342032362e34203020302030203235203020412032332e382032332e382030203020302030202d32322e3520412032312e342032312e34203020302030202d32302e33203020412031392e322031392e3220302030203020302031382e3220412031372e332031372e332030203020302031362e34203020412031352e362031352e362030203020302030202d31342e382041203134203134203020302030202d31332e33203020412031322e362031322e362030203020302030203132204120312e313520312e3135203020302030203020392e3720412031302e322031302e32203020302031202d31302e38203020412031312e342031312e342030203020312030202d313220412031322e362031322e362030203020312031332e332030204120313420313420302030203120302031342e3820412031352e362031352e36203020302031202d31362e34203020412031372e332031372e332030203020312030202d31382e3220412031392e322031392e322030203020312032302e33203020412032312e342032312e3420302030203120302032322e3520412032332e382032332e38203020302031202d3235203020412032362e342032362e342030203020312030202d32372e3820412032392e332032392e332030203020312033302e39203020412033322e362033322e3620302030203120302033342e3320412033362e322033362e32203020302031202d33382e31203020412034302e322034302e322030203020312030202d34322e3420412034342e372034342e372030203020312034372e31203020412034392e372034392e3720302030203120302035322e3320412035352e322035352e32203020302031202d35382e31203020412036312e332036312e332030203020312030202d36342e3620412036382e322036382e322030203020312037312e37203020412037352e372037352e3720302030203120302037392e3720412038342e312038342e31203020302031202d38382e36203020412039332e352039332e352030203020312030202d39382e342041203130332e39203130332e39203020302031203130392e3420302041203131352e34203131352e342030203020312030203132312e3520412031342e32352031342e3235203020302030203020313530205a222f3e3c616e696d6174655472616e73666f726d20747970653d22726f7461746522206475723d2232333973222076616c7565733d22303b303b353b31353b33303b35353b39303b39303b39303b3135303b3237303b3237303b2d3138303b3336303b2d3435303b2d3435303b3534303b2d3633303b3633303b3633303b3732303b3732303b3737353b33363022206174747269627574654e616d653d227472616e73666f726d2220617474726962757465547970653d22584d4c2220726570656174436f756e743d22696e646566696e697465222061646469746976653d2273756d222f3e3c2f673e3c67207472616e73666f726d3d227472616e736c617465283235362c2032353629223e3c706f6c79676f6e20706f696e74733d22302c313434202d34312e362c3732202d3132342e372c3732202d38332e312c30202d3132342e372c2d3732202d34312e362c2d373220302c2d3134342034312e362c2d3732203132342e372c2d37322038332e312c30203132342e372c37322034312e362c3732222f3e3c616e696d6174655472616e73666f726d20747970653d227363616c6522206475723d22313773222076616c7565733d223120313b3120313b312e303520312e30353b312e303520312e30353b312e303120312e30313b3120313b3120313b3120313b302e393720302e39373b302e393720302e39373b3120313b22206174747269627574654e616d653d227472616e73666f726d2220617474726962757465547970653d22584d4c2220726570656174436f756e743d22696e646566696e697465222061646469746976653d2273756d222f3e3c616e696d6174655472616e73666f726d20747970653d22726f7461746522206475723d22363773222076616c7565733d22303b303b303b303b303b2d313b313b313b303b303b303b2d323b333b313b303b303b303b2d313b2d313b313b2d313b302e3333333b303b303b3022206174747269627574654e616d653d227472616e73666f726d2220617474726962757465547970653d22584d4c2220726570656174436f756e743d22696e646566696e697465222061646469746976653d2273756d222f3e3c2f673e3c67207472616e73666f726d3d227472616e736c617465283235362c32353629223e3c7265637420783d222d32322220793d222d3139222072783d223135222072793d223130222077696474683d22343422206865696768743d223432222f3e3c7061746820643d224d202d31342e35202d32302043202d35382e31202d3135302035382e31202d3135302031342e35202d32302043203132342e37202d3130312e36203136302e3620382e392032332e3520372e362043203133352e322038372e322034312e31203135352e3520302032342e372043202d34312e31203135352e35202d3133352e322038372e32202d32332e3520372e362043202d3136302e3620382e39202d3132342e37202d3130312e36202d31342e35202d3230205a222f3e3c616e696d6174655472616e73666f726d20747970653d22726f7461746522206475723d22323373222076616c7565733d22303b303b303b303b303b303b303b303b313b2d313b303b303b303b303b303b303b303b303b303b303b303b303b303b313b2d313b303b303b303b303b303b303b313b2d313b313b2d313b313b2d323b333b2d31303b2d34353b2d37303b2d37323b2d37323b2d37323b2d37323b2d37323b2d37323b2d37323b2d37323b2d37323b2d37333b2d37313b2d37333b2d33363b2d33363b2d31383b2d31383b2d363b2d363b303b303b303b303b303b303b2d323b303b303b323b303b303b353b353b353b31353b31353b36393b36393b37323b37323b37323b37323b37323b38303b3130303b3132303b3133383b3134343b3134343b3134343b3134343b31343422206174747269627574654e616d653d227472616e73666f726d2220617474726962757465547970653d22584d4c2220726570656174436f756e743d22696e646566696e697465222061646469746976653d2273756d222f3e3c2f673e3c67207472616e73666f726d3d227472616e736c617465283235362c2032353629223e3c7061746820643d224d2030202d35302043202d35202d313030203430202d313130203735202d39302043203630202d3930203330202d3830203233202d343520432030202d3335203330202d382033392e31202d33312e3220432037352e31202d36362e33203131302e39202d33372e33203131372e3120322e352043203130372e38202d392e322038312e33202d32362e342034392e35202d31302e3120432032372e34202d32312e382032352031382e352034382e372031312e3120432039382e362031372e342039382e332036332e352037312e312039332e3120432037342e342037382e352037312e332034372033382e382033322e3420432033342e3120372e3820312e312033312032312e3720343520432034372e392038372e392031312e37203131362e35202d32382e35203131332e362043202d3135203130372e3120372e372038352e31202d312e322035302e3520432031352e322033312e35202d32332e362032302e32202d32312e372034352043202d33382e392039322e33202d38332e382038312e38202d3130362e362034382e352043202d39332e312035352e31202d36312e372035392e31202d34302e322033302e362043202d31352e322033312e35202d33302e35202d352e38202d34382e372031312e312043202d39362e342032372e31202d3131362e31202d31342e35202d3130342e34202d35332e312043202d3130312e31202d33382e35202d38342e37202d31312e34202d3439202d31322e342043202d33342e3120372e38202d31342e35202d32372e35202d33392e31202d33312e322043202d38312e33202d35382e34202d36312e31202d39392e39202d32332e36202d3131342e382043202d3333202d313033202d34332e38202d37332e33202d32302e38202d34362043202d32372e34202d32312e382031322e35202d32382e342030202d3530205a222f3e3c616e696d6174655472616e73666f726d20747970653d22726f7461746522206475723d22323973222076616c7565733d22303b303b353b31353b33303b34353b36353b39303b39303b38393b39343b3138303b3137383b39303b3336303b3336303b313038303b313038303b3930303b3839303b3930303b3930303b3138303b3230303b3534303b3438303b3437353b3336303b3336373b3336343b3336303b33363022206174747269627574654e616d653d227472616e73666f726d2220617474726962757465547970653d22584d4c2220726570656174436f756e743d22696e646566696e697465222061646469746976653d2273756d222f3e3c2f673e3c67207472616e73666f726d3d227472616e736c617465283235362032353629223e3c636972636c652063783d2230222063793d22302220723d223634222f3e3c616e696d6174655472616e73666f726d20747970653d227363616c6522206475723d22313173222076616c7565733d223120313b3120313b312e303520312e30353b312e303520312e30353b31203122206174747269627574654e616d653d227472616e73666f726d2220617474726962757465547970653d22584d4c2220726570656174436f756e743d22696e646566696e697465222061646469746976653d2273756d222f3e3c673e3c706174682069643d2273756e6265616d732220643d2220204d202d3520313430204c203520313430204c2035203830204c202d35203830205a204d202d3133342e372033382e35204c202d3133312e36203438204c202d37342e352032392e35204c202d37372e36203230205a204d202d37382e32202d3131362e32204c202d38362e33202d3131302e33204c202d35312e31202d36312e38204c202d3433202d36372e37205a204d2038362e33202d3131302e33204c2037382e32202d3131362e32204c203433202d36372e37204c2035312e31202d36312e38205a204d203133312e36203438204c203133342e372033382e35204c2037372e36203230204c2037342e352032392e35205a222f3e3c616e696d6174655472616e73666f726d20747970653d22726f7461746522206475723d22332e3773222076616c7565733d22303b313b3022206174747269627574654e616d653d227472616e73666f726d2220617474726962757465547970653d22584d4c2220726570656174436f756e743d22696e646566696e697465222061646469746976653d2273756d222f3e3c2f673e3c673e3c75736520687265663d222373756e6265616d7322207472616e73666f726d3d22726f7461746528333629222f3e3c616e696d6174655472616e73666f726d20747970653d22726f7461746522206475723d22332e3173222076616c7565733d22303b2d313b3022206174747269627574654e616d653d227472616e73666f726d2220617474726962757465547970653d22584d4c2220726570656174436f756e743d22696e646566696e697465222061646469746976653d2273756d222f3e3c2f673e3c2f673e3c636972636c652063783d22323536222063793d223235362220723d22313238222f3e3c67207472616e73666f726d3d227472616e736c617465283235362c32353629223e3c7061746820643d224d202d362e39202d35302043202d3137202d313530203137202d31353020362e39202d353020432032342e31202d3134392035362e38202d3133392e392032302e31202d34362e3320432036332e34202d3133372039322e35202d3131392e332033312e39202d33392e322043203938202d3131342e38203132312e32202d39302034312e32202d32392e312043203132352e34202d38342e3120313431202d35332e392034372e36202d31362e392043203134332e34202d34372e32203135302e33202d31332e392035302e34202d332e342043203135302e38202d362e37203134382e352032372e322034392e342031302e332043203134372033342e32203133352e362036362e332034342e382032332e322043203133322e332037322e36203131322e37203130302e342033362e392033342e342043203130372e39203130352e362038312e35203132372e312032362e322034332e3120432037352e34203133302e382034342e32203134342e342031332e362034382e3620432033372e33203134362e3320332e36203135302e3920302035302e352043202d332e36203135302e39202d33372e33203134362e33202d31332e362034382e362043202d34342e32203134342e34202d37352e34203133302e38202d32362e322034332e312043202d38312e35203132372e31202d3130372e39203130352e36202d33362e392033342e342043202d3131322e37203130302e34202d3133322e332037322e36202d34342e382032332e322043202d3133352e362036362e33202d3134372033342e32202d34392e342031302e332043202d3134382e352032372e32202d3135302e38202d362e37202d35302e34202d332e342043202d3135302e33202d31332e39202d3134332e34202d34372e32202d34372e36202d31362e392043202d313431202d35332e39202d3132352e34202d38342e31202d34312e32202d32392e312043202d3132312e32202d3930202d3938202d3131342e38202d33312e39202d33392e322043202d39322e35202d3131392e33202d36332e34202d313337202d32302e31202d34362e332043202d35362e38202d3133392e39202d32342e31202d313439202d362e39202d3530205a222f3e3c616e696d6174655472616e73666f726d20747970653d22726f7461746522206475723d22333773222076616c7565733d22303b303b303b303b303b313b2d313b303b303b303b303b303b303b313b313b323b323b333b343b353b363b383b31303b31323b31353b31383b32313b32343b32383b33323b33363b34303b34353b35303b35353b36303b36363b37323b37373b38313b38343b38363b38383b38393b38393b39303b39303b39303b39303b38383b38383b38383b38353b38333b38333b38303b38303b38303b37382e323622206174747269627574654e616d653d227472616e73666f726d2220617474726962757465547970653d22584d4c2220726570656174436f756e743d22696e646566696e697465222061646469746976653d2273756d222f3e3c2f673e3c67207472616e73666f726d3d227472616e736c617465283235362032353629223e3c7061746820643d224d203235362034323820432030203235362031323820302032353620313830204320333834203020353132203235362032353620343238205a22207472616e73666f726d3d227472616e736c617465282d323536202d32353629222f3e3c616e696d6174655472616e73666f726d20747970653d227363616c6522206475723d22312e3473222076616c7565733d223120313b3120313b3120313b3120313b3120313b3120313b3120313b3120313b3120313b312e303120302e3939323b312e30303520302e39393b312e30303220302e3939353b31203122206174747269627574654e616d653d227472616e73666f726d2220617474726962757465547970653d22584d4c2220726570656174436f756e743d22696e646566696e697465222061646469746976653d2273756d222f3e3c616e696d6174655472616e73666f726d20747970653d227363616c6522206475723d22313773222076616c7565733d223120313b3120313b312e3120313b31203122206174747269627574654e616d653d227472616e73666f726d2220617474726962757465547970653d22584d4c2220726570656174436f756e743d22696e646566696e697465222061646469746976653d2273756d222f3e3c616e696d6174655472616e73666f726d20747970653d227363616c6522206475723d22323373222076616c7565733d223120313b3120313b3120312e313b31203122206174747269627574654e616d653d227472616e73666f726d2220617474726962757465547970653d22584d4c2220726570656174436f756e743d22696e646566696e697465222061646469746976653d2273756d222f3e3c2f673e3c673e3c7061746820643d224d2032313620323136204320393620393620343136203936203239362032313620432034313620393620343136203431362032393620323936204320343136203431362039362034313620323136203239362043203936203431362039362039362032313620323136205a222f3e3c616e696d6174655472616e73666f726d20747970653d227472616e736c61746522206475723d223773222076616c7565733d223020303b3020303b3020303b3020323b3020323b3220303b3220303b3220303b32202d323b30202d323b30202d323b30202d323b30202d323b2d32202d323b2d3220303b2d3220303b2d3220303b2d3220303b30203022206174747269627574654e616d653d227472616e73666f726d2220617474726962757465547970653d22584d4c2220726570656174436f756e743d22696e646566696e697465222061646469746976653d2273756d222f3e3c2f673e3c673e3c706f6c79676f6e20706f696e74733d223234382c323130203234392c3830203235342c3830203235342c3833203235382c3833203235382c3830203236332c3830203236342c323130203237342e312c323133203334352e332c3130342e32203335372c3131312e37203238372e362c3232312e36203239342e352c3232392e36203431332e322c3137362e35203431392c3138392e33203330312e322c3234342e32203330322e372c3235342e36203433312e322c3237342e31203432392e322c323838203330302e342c3237302e35203239362c3238302e31203339332e362c333636203338342e342c3337362e35203238352e352c3239322e32203237362e362c3239372e39203331322e332c3432322e39203239382e392c3432362e38203236312e332c3330322e34203235302e372c3330322e34203231332e312c3432362e38203139392e372c3432322e39203233352e342c3239372e39203232362e352c3239322e32203132372e362c3337362e35203131382e342c333636203231362c3238302e31203231312e362c3237302e352038322e382c3238382038302e382c3237342e31203230392e332c3235342e36203231302e382c3234342e322039332c3138392e332039382e382c3137362e35203231372e352c3232392e36203232342e342c3232312e36203135352c3131312e37203136362e372c3130342e32203233372e392c323133222f3e3c616e696d6174655472616e73666f726d20747970653d22726f7461746522206475723d22333473222076616c7565733d223020323536203235363b3020323536203235363b3538392e303920323536203235363b3538392e303920323536203235363b3538392e303920323536203235363b3538392e303920323536203235363b3538392e303920323536203235363b3538392e303920323536203235363b22206174747269627574654e616d653d227472616e73666f726d2220617474726962757465547970653d22584d4c2220726570656174436f756e743d22696e646566696e697465222061646469746976653d2273756d222f3e3c616e696d6174655472616e73666f726d20747970653d22726f7461746522206475723d22333873222076616c7565733d223020323536203235363b3020323536203235363b3020323536203235363b3020323536203235363b3638372e323720323536203235363b3638372e323720323536203235363b3638372e323720323536203235363b3638372e323720323536203235363b22206174747269627574654e616d653d227472616e73666f726d2220617474726962757465547970653d22584d4c2220726570656174436f756e743d22696e646566696e697465222061646469746976653d2273756d222f3e3c616e696d6174655472616e73666f726d20747970653d22726f7461746522206475723d22343673222076616c7565733d223020323536203235363b3020323536203235363b3020323536203235363b3020323536203235363b3020323536203235363b3020323536203235363b3020323536203235363b2d39383120323536203235363b22206174747269627574654e616d653d227472616e73666f726d2220617474726962757465547970653d22584d4c2220726570656174436f756e743d22696e646566696e697465222061646469746976653d2273756d222f3e3c2f673e3c67207472616e73666f726d3d227472616e736c617465283235362032353629223e3c636972636c652063783d2230222063793d22302220723d22313238222f3e3c616e696d6174655472616e73666f726d20747970653d227363616c6522206475723d22333073222076616c7565733d223120313b3120313b3120313b3120313b3120313b3120313b3120313b3120313b3120313b312e3220312e323b312e3220312e323b312e3220312e323b312e3220312e323b312e3220312e323b312e3220312e323b312e353520312e35353b312e353520312e35353b312e353520312e35353b312e353520312e35353b312e353520312e35353b312e353520312e35353b312e353520312e35353b302e3420302e343b302e3420302e343b302e3420302e343b302e3420302e343b302e3420302e343b302e3420302e343b302e3420302e343b302e3820302e383b302e3820302e383b302e383520302e383b302e3820302e38353b302e3820302e383b302e3820302e383b312e3120312e313b3120313b3120313b3120313b3120313b3120313b3120313b302e373520312e353b302e373520312e353b302e373520312e353b302e373520312e353b302e373520312e353b312e3520302e37353b312e3520302e37353b312e3520302e37353b312e3520302e37353b312e3520302e37353b312e3720302e333b302e3920312e323b3120313b22206174747269627574654e616d653d227472616e73666f726d2220617474726962757465547970653d22584d4c2220726570656174436f756e743d22696e646566696e697465222061646469746976653d2273756d222f3e3c2f673e3c67207472616e73666f726d3d227472616e736c617465283235362c2032353629223e3c7061746820643d224d2030202d3135302043203130202d313430203630202d313030203438203530204320353620343520383820383220393220313738204320383420313632203630203134362034302031343620432034302e3320313538202d34302e3320313538202d3430203134362043202d363020313436202d383420313632202d3932203137382043202d3838203832202d3536203435202d34382035302043202d3630202d313030202d3130202d3134302030202d313530205a222f3e3c616e696d6174655472616e73666f726d20747970653d227472616e736c61746522206475723d22313373222076616c7565733d223020303b3020303b3020303b3020303b3020303b3020303b3020303b3020303b3020323b3020303b3020303b3020303b3020303b3020303b3020303b3020303b3020303b3020303b3020303b3020303b3020303b3020303b3020303b3020303b3020303b3020303b3020303b3020303b3020303b3020303b3020303b3020303b3020303b3020303b3020303b3020303b3020303b3020303b3020303b3020303b3020303b3020303b3020303b3020303b3020303b3020303b3020303b3020303b3020303b3020303b3020303b3020303b3020303b3020303b3020303b3020303b3020303b3020303b3020303b3020303b3020303b3020303b3020303b3020303b3020303b3020303b3020303b3020303b3020303b3020303b3020303b3020303b3020303b3020303b3020303b3020303b3020303b3020303b3020303b3020303b3020303b3020303b3020303b3020303b3020303b3020303b3020303b3020303b3020303b3020303b3020303b3020303b3020303b3020303b3020333b3020303b3020313b3020303b3020303b3020303b3020303b3020303b3020303b3020303b3020303b3020303b3020303b3020303b3020303b3020303b3020303b3020303b3020303b3020303b3020303b3020303b3020303b3020303b3020303b3020303b3020303b3020303b3020303b3020303b3020303b3020303b3020303b3020303b3020303b3020313b3020303b3020313b3020303b3020313b3020303b3020313b3020303b3020323b3020303b3020323b3020303b3020323b3020303b3020323b3020303b3020333b3020303b3020333b3020303b3020303b3020333b3020303b3020343b3020303b3020343b3020303b3020353b3020303b3020363b3020303b3020303b3020373b3020303b3020383b3020303b3020393b3020303b302031303b3020303b3020303b302031313b3020303b302031323b3020303b3020303b302031333b3020303b302031343b3020303b302031353b3020303b302031363b3020303b3020303b302031373b3020303b302031383b3020303b302031393b3020303b3020303b302032303b3020303b302032313b3020303b3020303b3020303b302032323b302031383b3020383b30202d31303b30202d36303b30202d3138303b30202d3430303b353030202d3530303b35303020303b34383020303b34363020303b34343020303b34323020303b34303020303b33383020303b33363020303b33343020303b33323020303b33303020303b32383020303b32363020303b32343020303b32323020303b32303020303b31383020303b31363020303b31343520303b31333020303b31313520303b31303020303b383520303b373020303b363020303b353020303b343020303b333020303b323020303b313220303b3620303b30203022206174747269627574654e616d653d227472616e73666f726d2220617474726962757465547970653d22584d4c2220726570656174436f756e743d22696e646566696e697465222061646469746976653d2273756d222f3e3c2f673e3c67207472616e73666f726d3d227472616e736c617465283235362c2032353629223e3c706f6c79676f6e20706f696e74733d2233322c2d39362039362c2d3936203136302c2d33322039362c33322039362c39362033322c313630202d33322c3936202d39362c3936202d3136302c3332202d39362c2d3332202d39362c2d3936202d33322c2d3136302033322c2d3936222f3e3c616e696d6174655472616e73666f726d20747970653d22726f7461746522206475723d2231363773222076616c7565733d22303b303b39303b2d39303b3138303b2d31383022206174747269627574654e616d653d227472616e73666f726d2220617474726962757465547970653d22584d4c2220726570656174436f756e743d22696e646566696e697465222061646469746976653d2273756d222f3e3c2f673e",
  "devdoc": {
    "kind": "dev",
    "methods": {},
    "version": 1
  },
  "userdoc": {
    "kind": "user",
    "methods": {},
    "version": 1
  },
  "storageLayout": {
    "storage": [
      {
        "astId": 2986,
        "contract": "contracts/MondrianShapes.sol:MondrianShapes",
        "label": "shapeNames",
        "offset": 0,
        "slot": "0",
        "type": "t_array(t_string_storage)32_storage"
      },
      {
        "astId": 3023,
        "contract": "contracts/MondrianShapes.sol:MondrianShapes",
        "label": "shapeRarityMillibit",
        "offset": 0,
        "slot": "32",
        "type": "t_array(t_uint256)32_storage"
      },
      {
        "astId": 3060,
        "contract": "contracts/MondrianShapes.sol:MondrianShapes",
        "label": "shapes",
        "offset": 0,
        "slot": "64",
        "type": "t_array(t_string_storage)32_storage"
      }
    ],
    "types": {
      "t_array(t_string_storage)32_storage": {
        "base": "t_string_storage",
        "encoding": "inplace",
        "label": "string[32]",
        "numberOfBytes": "1024"
      },
      "t_array(t_uint256)32_storage": {
        "base": "t_uint256",
        "encoding": "inplace",
        "label": "uint256[32]",
        "numberOfBytes": "1024"
      },
      "t_string_storage": {
        "encoding": "bytes",
        "label": "string",
        "numberOfBytes": "32"
      },
      "t_uint256": {
        "encoding": "inplace",
        "label": "uint256",
        "numberOfBytes": "32"
      }
    }
  }
}